:1000000014C1000042C1000040C100003EC1000018
:100010003CC100003AC1000038C1000036C10000F8
:1000200034C1000032C1000030C100002EC1000008
:100030002CC100002AC1000028C1000026C1000018
:1000400024C1000022C1000020C100001EC1000028
:10005000BFC300001AC1000018C100006FC3000038
:1000600014C1000089C200005EC200000EC1000081
:100070000CC100000AC1000008C1000006C1000058
:1000800004C1000002C1000000C10000FEC0000069
:10009000FCC00000FAC00000F8C00000F6C000007C
:1000A000F4C00000F2C00000F0C00000EEC000008C
:1000B000ECC00000EAC00000E8C00000B4C30000CB
:1000C000E4C00000E2C00000E0C00000DEC00000AC
:1000D000DCC00000DAC00000D8C00000D6C00000BC
:1000E000D4C0000058025B024A024E02540292023F
:1000F0005F02630269026D02710277027B027F0276
:100100009202850289028D02000020002300260051
:1001100029002C002F00320000010000030106011D
:10012000090100002100240027002A002D003000D2
:10013000330001010000040107010A010000220050
:10014000250028002B002E003100340002010000A1
:10015000050108010B010505050507050808080844
:10016000020202020A0A080804040404010101014F
:10017000010101010303030303030303040707074A
:100180000C0C0C0C0C0C0C0C0202020206060606EF
:10019000060606060B0B0B0B0B0B0B0B01021020BC
:1001A00020080810204010204080020102010804AD
:1001B0000201010204081020408080402010080441
:1001C000020180040201804020100804020108049A
:1001D00002010102040810204080010204081020DE
:1001E000408000000A0B02090C0D0E0807030401F1
:1001F00000000000000000000000000000000000FF
:1002000000000000000000000000000000001211CB
:1002100010000000000000000000000000000000CE
:1002200000000000000000008D0E11241FBECFEF63
:10023000D1E2DEBFCDBF00E00CBF12E0A0E0B2E033
:10024000E6E8F2E200E00BBF02C007900D92A8358D
:10025000B107D9F723E0A8E5B2E001C01D92AF3E97
:10026000B207E1F711E0C5E1D1E000E006C0219757
:100270000109802FFE010E94CE0EC431D10780E01B
:100280000807A9F797D40C944111BACEFC01918DBF
:10029000828D981761F0828DDF01A80FB11D5D96E8
:1002A0008C91928D9F5F9F73928F90E008958FEF56
:1002B0009FEF0895FC01918D828D981731F0828D0A
:1002C000E80FF11D858D90E008958FEF9FEF089561
:1002D000FC01918D228D892F90E0805C9F4F821BC5
:1002E00091098F73992708958FE792E0F1DF21E05C
:1002F000892B09F420E0822F0895FC01848DDF0111
:10030000A80FB11DA35ABF4F2C91848D90E0019688
:100310008F739927848FA689B7892C93A089B18977
:100320008C9180648C93938D848D981306C0028881
:10033000F389E02D80818F7D80830895EF92FF9275
:100340000F931F93CF93DF93EC0181E0888F9B8DF8
:100350008C8D981305C0E889F989808185FD23C0BB
:10036000F62E0B8D10E00F5F1F4F0F731127E02E3D
:100370008C8DE8120BC00FB607FCFACFE889F9891B
:10038000808185FFF5CFCE01B8DFF2CF8B8DFE01E6
:10039000E80FF11DE35AFF4FF0820B8FEA89FB89CA
:1003A0008081806207C0EE89FF896083E889F989CE
:1003B00080818064808381E090E0DF91CF911F9104
:1003C0000F91FF90EF900895CF93DF93EC01888D0C
:1003D0008823C1F0EA89FB89808185FD05C0A88951
:1003E000B9898C9186FD0EC00FB607FCF5CF8081D0
:1003F00085FFF2CFA889B9898C9185FFEDCFCE0119
:100400007CDFE8CFDF91CF91089580E090E0892BE9
:1004100019F06ADF811125C080E090E0892B41F05E
:1004200080E090E0892B21F00E94000081111CC027
:1004300080E090E0892B41F080E090E0892B21F072
:100440000E940000811113C080E090E0892BA1F090
:1004500080E090E0892B81F00E94000081110AC0A9
:1004600008950E940000D8CF0E940000E1CF0E94B2
:100470000000EACF0C940000089590E0FC01319751
:10048000E231F10508F04EC08827EE58FF4F8F4F3C
:100490000C94CE0E809180008F7703C080918000F5
:1004A0008F7D80938000089580918000877FF9CFB1
:1004B00084B58F7702C084B58F7D84BD0895809107
:1004C000B0008F7703C08091B0008F7D8093B00023
:1004D0000895809190008F7707C0809190008F7D64
:1004E00003C080919000877F809390000895809151
:1004F000A0008F7707C08091A0008F7D03C08091FE
:10050000A000877F8093A0000895809120018F77BD
:1005100007C0809120018F7D03C080912001877FDB
:100520008093200108951F920F920FB60F9211240D
:100530000BB60F922F933F934F935F936F937F93DD
:100540008F939F93AF93BF93EF93FF938FE792E0C7
:10055000D4DEFF91EF91BF91AF919F918F917F91E9
:100560006F915F914F913F912F910F900BBE0F9024
:100570000FBE0F901F9018951F920F920FB60F92FB
:1005800011240BB60F922F938F939F93EF93FF93AA
:10059000E0918F02F09190028081E0919502F091BC
:1005A000960282FD12C09081809198028F5F8F73B6
:1005B00020919902821751F0E0919802F0E0E15801
:1005C000FD4F958F8093980201C08081FF91EF913C
:1005D0009F918F912F910F900BBE0F900FBE0F9098
:1005E0001F9018951F93CF93DF93282F30E0F901C8
:1005F000EE51FE4F8491F901E456FE4FD491F9017A
:10060000EA5AFE4FC491CC23C1F0162F811135DF79
:10061000EC2FF0E0EE0FFF1FE45CFE4FA591B491CC
:100620008FB7F894111105C09C91ED2FE095E92347
:1006300002C0EC91ED2BEC938FBFDF91CF911F9116
:100640000895CF92DF92EF92FF920F931F93CF9373
:10065000DF9341E050E065E572E08FE792E00CD275
:1006600098E0C92ED12C8EE5E82E82E0F82EC0E06D
:10067000D2E08E01F70181917F01882321F061E0B2
:10068000F8018081AFDF0F5F1F4FF6E6EF16F2E053
:10069000FF0681F781E0C81AD10829F783E090E0CE
:1006A0000197F1F760E089919DDFE2E0C830DE0755
:1006B000C9F7DF91CF911F910F91FF90EF90DF90DD
:1006C000CF900895CF93DF9390E0FC01E456FE4F66
:1006D0002491FC01EA5AFE4F8491882361F190E055
:1006E000880F991FFC01EE5DFE4FC591D491FC016E
:1006F000E45CFE4FA591B491611109C09FB7F894D5
:100700008881209582238883EC912E230BC0623050
:1007100061F49FB7F8943881822F80958323888372
:10072000EC912E2B2C939FBF06C08FB7F894E881D5
:100730002E2B28838FBFDF91CF9108951F920F92A8
:100740000FB60F9211242F933F938F939F93AF93E4
:10075000BF9380916B0290916C02A0916D02B09159
:100760006E0230916A0223E0230F2D3720F40196A8
:10077000A11DB11D05C026E8230F0296A11DB11DC4
:1007800020936A0280936B0290936C02A0936D0297
:10079000B0936E028091660290916702A091680208
:1007A000B09169020196A11DB11D809366029093DC
:1007B0006702A0936802B0936902BF91AF919F91C5
:1007C0008F913F912F910F900FBE0F901F90189512
:1007D0001F920F920FB60F9211240BB60F922F9308
:1007E0003F934F935F936F937F938F939F93AF93B9
:1007F000BF93EF93FF93E0915C02F0915D02199536
:10080000FF91EF91BF91AF919F918F917F916F91E8
:100810005F914F913F912F910F900BBE0F900FBEA4
:100820000F901F9018951F920F920FB60F921124E0
:100830000BB60F922F933F934F935F936F937F93DA
:100840008F939F93AF93BF93CF93DF93EF93FF93D8
:1008500020911D0330E0F901EE51FE4F8491F90122
:10086000E456FE4FD491F901EA5AFE4FC491CC23CD
:1008700099F0811102DEEC2FF0E0EE0FFF1FE85F30
:10088000FE4FA591B491EC91ED2331E020E009F405
:1008900030E0832F922F02C080E090E0209121036E
:1008A000309122032F5F3F4F309322032093210387
:1008B00020912003253618F026E020931C03209178
:1008C0001C032430D9F128F4223069F02330D9F008
:1008D00060C0253009F453C0263009F05AC021E029
:1008E0002093ED0353C0009709F053C020912103DA
:1008F000309122032436310508F443C01092ED03F1
:10090000109220031DC08130910509F042C0E09192
:10091000200321E02E0F20932003F0E020912103FB
:1009200030912203EE0FFF1FE45EFC4F30872783D8
:10093000109222031092210324E029C00097B9F4F9
:10094000E091200321E02E0F20932003F0E020917E
:10095000210330912203EE0FFF1FE45EFC4F30872E
:100960002783109222031092210323E010C02091CC
:100970002103309122032536310558F007C0009736
:1009800041F4109222031092210303C025E020932A
:100990001C0320911F032223B1F0892B51F4809175
:1009A0001E03882321F080911E0361E009C02F9A65
:1009B0000AC080911E03882329F080911E0360E005
:1009C00011DE01C02F98FF91EF91DF91CF91BF9180
:1009D000AF919F918F917F916F915F914F913F91D7
:1009E0002F910F900BBE0F900FBE0F901F90189578
:1009F000CF92DF92EF92FF92CF93DF93EC01072E1D
:100A0000000C880B990B0E942A106B017C0120E0DE
:100A100030E040E45FE30E94DA1020E030E048E498
:100A200052E40E948F0F0E94F70FC617D707D4F029
:100A300020E030E040EA5FE3C701B6010E94DA102F
:100A400020E030E048E452E40E948F0F20E030E0E4
:100A500040E85FE30E94270F0E94F70F21E06C1728
:100A60007D070CF420E0822F90E0DF91CF91FF9082
:100A7000EF90DF90CF900895CF92DF92EF92FF92A8
:100A80000F931F93CF93DF936C017A018B01C0E02A
:100A9000D0E0CE15DF0589F0D8016D918D01D6012A
:100AA000ED91FC910190F081E02DC6011995892B03
:100AB00011F47E0102C02196ECCFC701DF91CF91E6
:100AC0001F910F91FF90EF90DF90CF9008950E94BB
:100AD0003D118F929F92AF92BF92CF92DF92EF9291
:100AE000FF920F931F93CF93DF93FC01C081D181BD
:100AF00020917B0230917C02C217D3070CF048C0D2
:100B00009E01220F331FE0917902F0917A02E20FE9
:100B1000F31F80809180C170DD27F1E0CF272097FF
:100B200019F404E610E002C00CE91FEF7A015B0142
:100B30006C01040F151FB801C4015ADF892B89F419
:100B40000E0D1F1DB801C40153DF892B69F4B801D4
:100B50006E0D7F1DC4014CDF892BE9F023E030E0EE
:100B600005C021E030E002C022E030E0F5018081E4
:100B700091810196821793073CF0F5011182108252
:100B8000F60180819181019691838083CE0105C019
:100B900081E090E002C08FEF9FEFDF91CF911F9136
:100BA0000F91FF90EF90DF90CF90BF90AF909F900C
:100BB0008F900895CF93DF93CDB7DEB766970FB6CA
:100BC000F894DEBF0FBECDBF789484B5826084BD3B
:100BD00084B5816084BD85B5826085BD85B5816041
:100BE00085BD80916E00816080936E0010928100BF
:100BF000809181008260809381008091810081607A
:100C0000809381008091800081608093800080913A
:100C1000B10084608093B1008091B00081608093C6
:100C2000B00080919100826080939100809191004A
:100C3000816080939100809190008160809390000A
:100C40008091A10082608093A1008091A1008160C9
:100C50008093A1008091A00081608093A00080918A
:100C60002101826080932101809121018160809324
:100C700021018091200181608093200180917A0080
:100C8000846080937A0080917A00826080937A00F9
:100C900080917A00816080937A0080917A008068E8
:100CA00080937A001092C10040E3242E42E0342E5B
:100CB00088E292E09E838D83A0E2B2E0B887AF83A2
:100CC000E8E1F2E0FA8BE98B80E192E09C878B8788
:100CD000A8E0B2E0BE87AD87E0E0F2E0F88BEF87F6
:100CE00008E312E07F016D015C0158E1852E52E0BE
:100CF000952E60E2662E62E0762E88E292E09C8B72
:100D00008B8B9101412C512C61E0D9018D919D017A
:100D1000AD8B3E8BD7DC61E0EB89FC898191FC8B4C
:100D2000EB8BD0DC61E0D3018D913D01CBDC61E048
:100D3000F40181914F01C6DC61E0D5018D915D0127
:100D4000C1DC61E0F60181916F01BCDC61E0D7019B
:100D50008D917D01B7DC61E0F80181918F01B2DCFA
:100D6000FFEF4F1A5F0A2D893E8988E0481651042B
:100D700059F608E312E088E1E82E82E0F82E90E2CE
:100D8000C92E92E0D92E28E2A22E22E0B22E30E324
:100D9000832E32E0932E612C712C61E0D4018D9171
:100DA0004D0120DC60E0F50181915F011BDC60E01A
:100DB000D6018D916D0116DC60E0F70181917F0114
:100DC00011DC61E0AB85BC858D91BC87AB870ADC0B
:100DD00061E0ED85FE858191FE87ED8703DC60E0B3
:100DE000AF85B8898D91B88BAF87FCDB60E0F801E7
:100DF00081918F01F7DBFFEF6F1A7F0A28E06216FF
:100E0000710459F6E0918F02F091900212E0108384
:100E1000E0918B02F0918C021082E0918D02F091B2
:100E20008E0200E1008310929702E0919302F0910C
:100E3000940286E08083E0919102F0919202808199
:100E400080618083E0919102F091920280818860BC
:100E50008083E0919102F09192028081806880838A
:100E6000E0919102F091920280818F7D808344E035
:100E700050E060E572E08FE792E0FEDDF8941092BA
:100E8000200189E08093210180E293E09093290181
:100E90008093280110922501109224011093730071
:100EA000789410931C031092200380911D0360E03E
:100EB00009DC109280000093810021E020935A0207
:100EC0008FB780935B02F89480E895E29093590283
:100ED00080935802909387008093860080915B02F4
:100EE0008FBF80918100887F8093810090918100E5
:100EF00080915A02982B9093810041E253E05093E5
:100F00005D0240935C0220936F0090918100892BD9
:100F10008093810060E0AD81BE818D91BE83AD8301
:100F200061DB60E0EF81F8858191F887EF835ADB20
:100F300060E0A989BA898D91BA8BA98B53DBED81C9
:100F4000FE81E053F24031F760E0D1018D911D0147
:100F500049DBB8E32B16B2E03B06B1F744244A94D0
:100F6000542C3201E3E2F3E0F0937A02E093790249
:100F70008091200390E090937C0280937B0280918B
:100F8000ED0390E090937E0280937D0280911C039C
:100F9000853009F05DC28091250390912603885821
:100FA00091098D35910588F480912003843041F4B6
:100FB00080912703909128038097479708F44BC2AC
:100FC00080912003843408F0D9C1809120038A31B4
:100FD00008F44FC08091230390912403843F9140F3
:100FE00068F4109278021092770240927302509245
:100FF0007402609275027092760259C08091250346
:101000009091260385974B97A0F5E9E2F3E082E003
:1010100090E0C12CD12C7601AC014F5F5F4F209145
:10102000200330E0421753075CF4DF0112972D9143
:101030003C91275031092730310508F430C2CA01EC
:1010400001979595879590937802809377020C97F6
:101050002CF410927802109277020BC0C0927302A7
:10106000D0927402E0927502F092760284E090E0F1
:1010700033C3809120038A3108F44CC0809123034C
:10108000909124038032934008F4ABCF80912503E4
:1010900090912603C697869708F41EC23BC0C09263
:1010A0007302D0927402E0927502F09276028BE0A5
:1010B00090E012C320813181255231092B31310555
:1010C00008F01AC2CC0CDD1CEE1CFF1C6894C0F8A2
:1010D00002963496AC014F5F5F4F2091200330E0C1
:1010E0004217530754F4DF0112972D913C912C5075
:1010F00031092B303105F0F2CA010197959587959A
:1011000090937802809377020C974CF610927802B5
:101110001092770280912003823208F44DC08091B2
:101120002503909126030697079708F045C0E9E24A
:10113000F3E022E030E0C12CD12C7601C901019608
:101140004091200350E084179507E4F4DF011297E3
:101150004D915C9111974E5151094731510508F05D
:10116000D8C1CC0CDD1CEE1CFF1C6894C0F840817B
:1011700051813496435051094530510520F42E5F7A
:101180003F4FDCCFC90101979595879590937802E1
:101190008093770240972CF4109278021092770295
:1011A0000BC0C0927302D0927402E0927502F0926A
:1011B00076028CE090E090C21C821B8281E090E07D
:1011C0009A838983809120038D3008F46AC049E7AF
:1011D00053E0BE016D5F7F4FCE0101967ADC892B13
:1011E00009F05FC049E753E0BE016D5F7F4FCE015C
:1011F00001966FDC019709F054C049E753E0BE0146
:101200006D5F7F4FCE01019664DC892B09F049C0E8
:10121000812C912C540100E010E08091200390E09B
:1012200029813A81281739074CF549E753E0BE0177
:101230006D5F7F4FCE0101964CDC7C0149E753E0A6
:10124000BE016D5F7F4FCE01019643DCA1E0EA163F
:10125000F10449F4892B29F5880C991CAA1CBB1CA4
:10126000689480F808C0EF28E1F40197D1F4880C65
:10127000991CAA1CBB1C0F5F1F4FCFCF1093780285
:10128000009377028092730290927402A09275028A
:10129000B0927602E1E0F0E0F0937002E0936F022A
:1012A000AEC01C821B8281E090E09A83898380918A
:1012B0007B0290917C02181619060CF054C0E09144
:1012C0007902F0917A0282E090E09A8389838281A8
:1012D000938189974E9708F046C083E090E09A8307
:1012E0008983848195810B970A9708F03CC04CEB69
:1012F00051E0BE016D5F7F4FCE010196EADB892B85
:1013000091F54CEB51E0BE016D5F7F4FCE01019630
:10131000E0DB019741F5812C912C540100E010E0B5
:1013200029813A8180917B0290917C0228173907AC
:101330000CF030C14CEB51E0BE016D5F7F4FCE0130
:101340000196C7DB6C010330110509F0EFC04CEBCF
:1013500051E0BE016D5F7F4FCE010196BADBC8162A
:10136000D90609F4E3C0E0917902F0917A02828112
:101370009381C697869708F41CC1DDC1809127032D
:1013800090912803825491098E9708F01ECE80E038
:1013900090E040E050E0BA01FC01E75DFC4F2081A5
:1013A0003181295031092930310508F00ECEFC0178
:1013B000E55DFC4F20813181275131092231310512
:1013C00008F060C0440F551F661F771F41600496E8
:1013D0008038910509F780E290E09093780280933D
:1013E0007702409373025093740260937502709376
:1013F0007602A3E0B0E0B0937002A0936F028091F8
:10140000730290917402A0917502B09176028F3CA4
:10141000E0E39E07EFEFAE07B10509F062C18EE58C
:10142000E82E82E0F82E08E312E0DD24D39460E099
:10143000D8018D918D01D6D8F701D1927F01F2E0CC
:1014400000341F07A1F782E080931C031092200351
:101450000E94050287CD8091290390912A03099764
:10146000099708F0ADCD1092780210927702409261
:10147000730250927402609275027092760283E059
:1014800090E02AC120813181265031092730310571
:1014900008F09BCD440F551F661F771F98CF208102
:1014A0003181235131092F30310548F4CC0CDD1C3A
:1014B000EE1CFF1C6894C0F802963496ADCD2081D6
:1014C00031812A5031092930310508F0D2CDCC0CB8
:1014D000DD1CEE1CFF1CF0CF8091270390912803A8
:1014E000C697869708F016CEEBE2F3E083E090E033
:1014F000C12CD12C7601EECD208131812C503109C7
:101500002A30310508F006CECC0CDD1CEE1CFF1C89
:10151000DFCD4D915C914C5051094B30510508F095
:101520004BCECC0CDD1CEE1CFF1C21CE4CEB51E055
:10153000BE016D5F7F4FCE010196CBDA7C01033097
:10154000110561F44CEB51E0BE016D5F7F4FCE01A0
:101550000196BFDAE816F90609F005CFC114D104E7
:1015600059F4EA94EF2809F0FECE880C991CAA1CC5
:10157000BB1C689480F80BC0CA94CD2809F0F3CE48
:10158000EF2809F0F0CE880C991CAA1CBB1C0F5F39
:101590001F4FC6CE10937802009377028092730299
:1015A00090927402A0927502B092760282E090E06E
:1015B00093C0848195814B97459708F0BCC0DF01AB
:1015C00016967F0196ECE90EF11C20E030E040E039
:1015D00050E060E070E080E090E00D911C91119788
:1015E000095011090830110508F0A5C012960D9197
:1015F0001C911397015111090D30110510F501E0EF
:10160000DFD321601496AE15BF0539F7209373021E
:1016100030937402409375025093760200E2EBD34C
:10162000209371023093720285E090E090937002F3
:1016300080936F0280E390E090937802809377022A
:10164000DECE12960D911C911397045011090530AE
:10165000110508F070C001E0B3D3D4CFA801425007
:101660005109DA014D915C914950510948305105B9
:1016700008F00FC1BC016F5F7F4FD8014D915C91A5
:10168000475051094730510508F0F9C2220F331F66
:10169000216002960C5F1F4F4091200350E04450A0
:1016A000510984179507D4F20197959587959093E2
:1016B0007802809377028A970CF4EBC0C901330F4C
:1016C000AA0BBB0B8093730290937402A0937502D4
:1016D000B093760289E090E09093700280936F025D
:1016E0008ECE8538FAE79F07FFEFAF07B10541F4CB
:1016F000EEE5F2E0119222E0E636F207D9F7A3CE4A
:10170000873E9841AF4FB10509F09DCE0EE5E02E22
:1017100002E0F02E08E312E061E0D8018D918D0126
:101720000E94F20281E0F70181937F01F2E0003430
:101730001F0791F788CE80912003893370F1828151
:101740009381895791098335910508F43FC125C0DC
:10175000D90112966D917C9113976651710961318F
:10176000710508F05FC1D701C601880F991FAA1F34
:10177000BB1F6C017D016894C0F84E5F5F4F2C5F0A
:101780003F4F4B33510509F430C1D9016D917C9124
:101790006A50710969307105D8F280912003823254
:1017A00031F4828193810A97099708F44BC18281B1
:1017B00093818957910983359105D0F48091200355
:1017C0008132B0F084819581CA97899788F49F010E
:1017D0002A5F3F4FC12CD12C760143E050E0D90164
:1017E0006D917C916A5071096930710508F446C1A8
:1017F000828193818C549109C59778F4809120035C
:10180000843031F4848195818097479708F495C19D
:1018100080912003843408F077C1809120038634BE
:1018200060F1828193810C970B9708F4D1C125C098
:10183000D90112966D917C9113976E5171096731A0
:10184000710508F0FDC1D701C601880F991FAA1FB5
:10185000BB1F6C017D016894C0F84E5F5F4F2C5F29
:101860003F4F4534510509F4CEC1D9016D917C91AA
:101870006C5071096B307105D8F280912003883566
:1018800040F082819381855891098B35910508F448
:10189000E7C1809120038032E1F482819381069731
:1018A0000697B8F4848195810997099790F49F0170
:1018B0002A5F3F4FBF01625C7F4FC12CD12C760164
:1018C000D9014D915C91465051094630510508F4BB
:1018D000E3C180917B0290917C029E838D83069769
:1018E0000CF4B1CD1F0196E0290E311C25ECC22E5F
:1018F0002DE9D22E2CE1E22E21E8F22E03E010E0B9
:10190000D1016D917C91F1013497A080B18080E08C
:1019100090E09ED36F83788789879A87B50180E0AE
:1019200090E096D34B015C012DEC3CEC4CE45FE382
:1019300041D49B01AC016F81788589859A85EBD272
:1019400087FD17C02DEC3CEC4CE45FE36F8178859C
:1019500089859A852FD49B01AC01C501B401DBD2E6
:10196000E82F880FFF0BEE27FF0FEE1FFF273196A2
:1019700002C0E0E0F0E0A701960163E971E080E0D9
:1019800091E0FDD16F01FF0FEE08FF08C626D726B4
:10199000E826F9260F5F1F4FB2E02B0E311CED81B8
:1019A000FE810E171F0709F0ABCFC0927302D092D1
:1019B0007402E0927502F092760280E290E09093D9
:1019C0007802809377028FEF9FEF86CE8481958196
:1019D000CA97899708F0E1CE9F012A5F3F4FC12C3B
:1019E000D12C760143E050E0D0CE9F012A583F4FE2
:1019F000D9012D913C912A5031092930310508F047
:101A0000CCCE2CE130E03093780220937702C09264
:101A10007302D0927402E0927502F09276028AE02C
:101A200090E05ACED90112966D917C911397665031
:101A300071096730710508F0B0CECC0CDD1CEE1CCE
:101A4000FF1C9BCE20912003CF01820F911D820F9E
:101A5000911DDC0112978D919C910A97099708F0CE
:101A6000A6CE1092780210927702409273025092A2
:101A70007402609275027092760249C1D901129681
:101A80006D917C911397665171096131710588F1EF
:101A900012966D917C9113976650710967307105AC
:101AA00008F0A6CECC0CDD1CEE1CFF1C4E5F5F4F79
:101AB0002C5F3F4F4332510509F091CE9F012A5BC5
:101AC0003F4FD9012D913C912A50310929303105E0
:101AD00008F08ECE20E130E0309378022093770238
:101AE000C0927302D0927402E0927502F092760274
:101AF0000EC1D701C601880F991FAA1FBB1F6C0119
:101B00007D016894C0F8D2CF848195818954910970
:101B1000C39708F082CE9F012A5F3F4FBF016A57EB
:101B20007F4FC12CD12C7601D9014D915C91495048
:101B3000510949305105A0F070CE868197810997EF
:101B4000099708F065CE10927802109277024092C1
:101B50007302509274026092750270927602DAC03B
:101B6000D90112964D915C9113974651510941311B
:101B70005105F0F4D701C601880F991FAA1FBB1F9A
:101B80006C017D016894C0F82C5F3F4F2617370722
:101B900059F6E0E2F0E0F0937802E0937702C09229
:101BA0007302D0927402E0927502F0927602B2C093
:101BB000D90112964D915C911397465051094730C7
:101BC000510508F02ACECC0CDD1CEE1CFF1CDCCF2E
:101BD000848195810997099708F04FCE8681978176
:101BE0008C974F9708F049CE8085918589974D97BE
:101BF00008F043CE9F01265F3F4FC12CD12C7601C8
:101C000045E050E032CE9F0126573F4FD9012D913C
:101C10003C912C5031092B30310508F02ECEE0E2FA
:101C2000F0E0F0937802E0937702C0927302D092D2
:101C30007402E0927502F092760288E090E04CCD5A
:101C4000D90112966D917C91139769507109693091
:101C5000710508F012CECC0CDD1CEE1CFF1CFDCD76
:101C600084819581825491098E9708F012CE8F015C
:101C7000045C1F4F8DE190E020E030E00DCDD801F5
:101C80004D915C91485151094231510510F0CB0101
:101C90000BCD220F331FFDCCD90112964D915C91D3
:101CA0001397495151094331510508F5D701C60130
:101CB000880F991FAA1FBB1F6C017D016894C0F893
:101CC0002C5F3F4F2617370709F0FACD2EE030E0A2
:101CD0003093780220937702C0927302D0927402FC
:101CE000E0927502F09276028FE090E0F5CCD90197
:101CF00012964D915C911397495051094930510505
:101D000008F0E7CDCC0CDD1CEE1CFF1CD9CF86E023
:101D100090E0E2CC87E090E0DFCCEFE7F2E01382E6
:101D2000128288EE93E0A0E0B0E084839583A683DE
:101D3000B78384E492E09183808385EC90E095877B
:101D4000848784EC90E09787868780EC90E0918B85
:101D5000808B81EC90E0938B828B82EC90E0958B72
:101D6000848B86EC90E0978B868B118E128E138E6F
:101D7000148EECE1F3E085E1818313820895DB01A9
:101D80008F939F9313D0BF91AF91A29F800D911D10
:101D9000A39F900DB29F900D11240895EE0FFF1F89
:101DA000881F8BBF0790F691E02D199440D0A59F16
:101DB000900DB49F900DA49F800D911D1124089546
:101DC0000F93083090F0982F872F762F652F542F80
:101DD000432F322F22270850F4CF220F331F441FE6
:101DE000551F661F771F881F991F0A95B2F70F911D
:101DF000089597FB10F8169400080F93083098F098
:101E00000850232F342F452F562F672F782F892FD7
:101E1000902DF4CF0594979587957795679557956D
:101E20004795379527950A95AAF70F910895A29F90
:101E3000B001B39FC001A39F700D811D1124911D9E
:101E4000B29F700D811D1124911D08955058BB271C
:101E5000AA270ED075C166D130F06BD120F031F4D5
:101E60009F3F11F41EF45BC10EF4E095E7FB51C1F6
:101E7000E92F77D180F3BA176207730784079507B4
:101E800018F071F49EF58FC10EF4E0950B2EBA2F69
:101E9000A02D0B01B90190010C01CA01A001112470
:101EA000FF27591B99F0593F50F4503E68F11A161C
:101EB000F040A22F232F342F4427585FF3CF4695AD
:101EC00037952795A795F0405395C9F77EF41F16CF
:101ED000BA0B620B730B840BBAF09150A1F0FF0F99
:101EE000BB1F661F771F881FC2F70EC0BA0F621F85
:101EF000731F841F48F4879577956795B795F79575
:101F00009E3F08F0B3CF9395880F08F09927EE0F06
:101F1000979587950895D9D008F481E008950CD05D
:101F20000FC107D140F0FED030F021F45F3F19F02F
:101F3000F0C0511139C1F3C014D198F39923C9F3FA
:101F40005523B1F3951B550BBB27AA2762177307BF
:101F5000840738F09F5F5F4F220F331F441FAA1F73
:101F6000A9F333D00E2E3AF0E0E830D09150504033
:101F7000E695001CCAF729D0FE2F27D0660F771FE1
:101F8000881FBB1F261737074807AB07B0E809F0C3
:101F9000BB0B802DBF01FF2793585F4F2AF09E3F58
:101FA000510568F0B6C000C15F3FECF3983EDCF32A
:101FB000869577956795B795F7959F5FC9F7880FD1
:101FC000911D9695879597F90895E1E0660F771F23
:101FD000881FBB1F621773078407BA0720F0621BB4
:101FE000730B840BBA0BEE1F88F7E095089504D0AD
:101FF0006894B111D9C00895BCD088F09F5790F073
:10200000B92F9927B751A0F0D1F0660F771F881F1D
:10201000991F1AF0BA95C9F712C0B13081F0C3D038
:10202000B1E00895C0C0672F782F8827B85F39F0D6
:10203000B93FCCF3869577956795B395D9F73EF47C
:1020400090958095709561957F4F8F4F9F4F089524
:10205000E89409C097FB3EF4909580957095619542
:102060007F4F8F4F9F4F9923A9F0F92F96E9BB27F8
:102070009395F695879577956795B795F111F8CF74
:10208000FAF4BB0F11F460FF1BC06F5F7F4F8F4FDF
:102090009F4F16C0882311F096E911C0772321F0D5
:1020A0009EE8872F762F05C0662371F096E8862F6D
:1020B00070E060E02AF09A95660F771F881FDAF7C4
:1020C000880F9695879597F90895990F0008550FF1
:1020D000AA0BE0E8FEEF16161706E807F907C0F0AE
:1020E00012161306E407F50798F0621B730B840BB6
:1020F000950B39F40A2661F0232B242B252B21F490
:1021000008950A2609F4A140A6958FEF811D811D2F
:10211000089597F99F6780E870E060E008959FEF69
:1021200080EC089500240A9416161706180609066E
:10213000089500240A94121613061406050608953D
:10214000092E0394000C11F4882352F0BB0F40F4C5
:10215000BF2B11F460FF04C06F5F7F4F8F4F9F4F05
:10216000089557FD9058440F551F59F05F3F71F087
:102170004795880F97FB991F61F09F3F79F08795EE
:102180000895121613061406551FF2CF4695F1DF77
:1021900008C0161617061806991FF1CF8695710507
:1021A000610508940895E894BB2766277727CB013B
:1021B00097F908950BD0C4CFB5DF28F0BADF18F037
:1021C000952309F0A6CFABCF1124EECFCADFA0F341
:1021D000959FD1F3950F50E0551F629FF001729FBC
:1021E000BB27F00DB11D639FAA27F00DB11DAA1FDB
:1021F000649F6627B00DA11D661F829F2227B00D28
:10220000A11D621F739FB00DA11D621F839FA00DB2
:10221000611D221F749F3327A00D611D231F849F02
:10222000600D211D822F762F6A2F11249F57504059
:102230008AF0E1F088234AF0EE0FFF1FBB1F661FF4
:10224000771F881F91505040A9F79E3F510570F0AD
:1022500060CFAACF5F3FECF3983EDCF3869577958D
:102260006795B795F795E7959F5FC1F7FE2B880FA8
:10227000911D9695879597F9089581E090E0F894DF
:0622800000C0F894FFCF3E
:102286000E32160C33173C4400301A0B311B3B43FD
:10229600012E1C0A2F1D3A42052C1E092D1F3941FD
:1022A600042A20082B213840032822072923373FF8
:1022B600022624062725363E0F34180D35193D45CE
:1022C600000000009E013C05680146015A01E40138
:0822D600696E697400610000EB
:00000001FF
