:1000000006C1000023C1000021C100001FC1000083
:100010001DC100001BC1000019C1000017C1000074
:1000200015C1000013C1000011C100000FC1000084
:100030000DC100000BC1000009C1000007C1000094
:1000400005C1000003C1000001C10000FFC00000A5
:100050004EC20000FBC00000F9C00000FEC100005D
:10006000F5C00000F3C00000F1C00000EFC00000C8
:10007000EDC00000EBC00000E9C00000E7C00000D8
:10008000E5C00000E3C00000E1C00000DFC00000E8
:10009000DDC00000DBC00000D9C00000D7C00000F8
:1000A000D5C00000D3C00000D1C00000CFC0000008
:1000B000CDC00000CBC00000C9C00000C7C0000018
:1000C000C5C00000C3C00000C1C00000BFC0000028
:1000D000BDC00000BBC00000B9C00000B7C0000038
:1000E000B5C000007401770166016A016E01AE01BE
:1000F0007B017F01850189018D01930197019B019E
:10010000AE01A101A501A90100000A0B02090C0D15
:100110000E080703040100000000000000000000BA
:1001200000000000000000000000000000000000CF
:10013000000000001211100000000000000000008C
:1001400000000000000000000000000000000000AF
:100150002200250028002B002E003100340002016F
:100160000000050108010B01000021002400270008
:100170002A002D00300033000101000004010701B6
:100180000A0105050505070508080808020202021C
:100190000A0A080804040404010101010101010123
:1001A0000303030303030303040707070C0C0C0CEE
:1001B0000C0C0C0C020202020606060606060606D7
:1001C0000B0B0B0B0B0B0B0B010210202008081064
:1001D00020401020408002010201080402010102B7
:1001E0000408102040808040201008040201800490
:1001F00002018040201008040201080402010102EB
:1002000004081020408001020408102040801124BE
:100210001FBECFEFD1E2DEBFCDBF00E00CBF12E0CA
:10022000A0E0B2E0EAE9FBE000E00BBF02C007900B
:100230000D92A034B107D9F722E0A0E4B2E001C0EA
:100240001D92A937B207E1F77DD1A5C4D9CE90E0C0
:10025000FC01E853FE4F2491FC01EE57FE4F8491C0
:10026000882399F090E0880F991FFC01E859FE4F10
:10027000A591B491FC01E25BFE4F859194918FB7FB
:10028000F894EC91E22BEC938FBF0895362F90E019
:10029000FC01E85FFE4F4491FC01E853FE4F2491BE
:1002A000FC01EE57FE4F9491992309F46AC0442350
:1002B00009F454C050E0FA013197E231F10508F039
:1002C0004DC08827EE58FF4F8F4FDFC280918000CE
:1002D0008F7707C0809180008F7D03C08091800060
:1002E000877F809380003AC084B58F7702C084B541
:1002F0008F7D84BD33C08091B0008F7703C0809123
:10030000B0008F7D8093B00029C0809190008F77DE
:1003100007C0809190008F7D03C080919000877FFF
:10032000809390001BC08091A0008F7707C08091C0
:10033000A0008F7D03C08091A000877F8093A000E4
:100340000DC0809120018F7707C0809120018F7DA3
:1003500003C080912001877F80932001E92FF0E086
:10036000EE0FFF1FE25BFE4FA591B4918FB7F8949B
:10037000EC91311103C020952E2301C02E2B2C931C
:100380008FBF0895AF92BF92CF92DF92EF92FF920C
:100390000F931F93CF93DF93C0E6D2E038E0C32ED4
:1003A00032E0D32E40E4E42E42E0F42E00E512E0E9
:1003B000560188818F3F39F0813049F561E0F501C0
:1003C000808164DF24C0F8018081918182309105B1
:1003D000D4F461E0F501808159DFF70180819181DA
:1003E0008C32F1E09F071CF081E0888310C00196F9
:1003F000F70191838083880F991FFC01EF58FD4F0F
:100400008081918101C00197F801918380832196B9
:10041000FFEFAF1ABF0A22E0E20EF11C0E5F1F4F82
:1004200082E0C836D80729F683E090E00197F1F71B
:1004300060E0F60181916F0129DFF0E1CF16F2E073
:10044000DF06B1F7DF91CF911F910F91FF90EF90F1
:10045000DF90CF90BF90AF9008951F920F920FB68C
:100460000F9211242F933F938F939F93AF93BF933A
:1004700080916D0290916E02A0916F02B091700216
:1004800030916C0223E0230F2D3720F40196A11D3B
:10049000B11D05C026E8230F0296A11DB11D2093B2
:1004A0006C0280936D0290936E02A0936F02B093E2
:1004B00070028091680290916902A0916A02B091E5
:1004C0006B020196A11DB11D809368029093690291
:1004D000A0936A02B0936B02BF91AF919F918F91ED
:1004E0003F912F910F900FBE0F901F9018951F9264
:1004F0000F920FB60F9211240BB60F922F933F93CA
:100500004F935F936F937F938F939F93AF93BF931B
:10051000EF93FF93E0917702F09178021995FF91A4
:10052000EF91BF91AF919F918F917F916F915F916B
:100530004F913F912F910F900BBE0F900FBE0F90D8
:100540001F901895CF93DF93CDB7DEB762970FB6A4
:10055000F894DEBF0FBECDBF789484B5826084BDB1
:1005600084B5816084BD85B5826085BD85B58160B7
:1005700085BD80916E00816080936E001092810035
:1005800080918100826080938100809181008160F0
:1005900080938100809180008160809380008091B1
:1005A000B10084608093B1008091B000816080933D
:1005B000B0008091910082608093910080919100C1
:1005C0008160809391008091900081608093900081
:1005D0008091A10082608093A1008091A100816040
:1005E0008093A1008091A00081608093A000809101
:1005F000210182608093210180912101816080939B
:1006000021018091200181608093200180917A00F6
:10061000846080937A0080917A00826080937A006F
:1006200080917A00816080937A0080917A0080685E
:1006300080937A001092C10048E3842E42E0942E09
:1006400050E3652E52E0752E88E292E09C838B8306
:10065000E0E2F2E0FA83E98388E192E0988B8F8709
:10066000E0E1F2E0FE83ED8388E092E09A878987FB
:10067000E0E0F2E0F887EF83FA8BE98B08E012E024
:1006800060E1E62E62E0F62E78E1C72E72E0D72E0A
:10069000E0E2AE2EE2E0BE2EE8E2F2E0FE87ED8779
:1006A0007C866B861401412C512CF10181911F0134
:1006B000CEDDEB85FC858191FC87EB87C8DDED8580
:1006C000FE858191FE87ED87C2DDF50181915F0195
:1006D000BEDDF60181916F01BADDF70181917F01E5
:1006E000B6DDF80181918F01B2DDE989FA89819146
:1006F000FA8BE98BACDDFFEF4F1A5F0A88E04816F2
:10070000510499F690E2492E92E0592E08E212E047
:1007100020E3E22E22E0F22E38E3C32E32E0D32E85
:10072000A12CB12C61E0F60181916F01AFDD60E099
:10073000F70181917F01AADD60E0F80181918F01CD
:10074000A5DD60E0F20181912F01A0DD61E0EF8580
:10075000F8898191F88BEF8799DD61E0ED81FE8169
:100760008191FE83ED8392DD60E0E985FA858191D8
:10077000FA87E9878BDD60E0EF81F8858191F88762
:10078000EF8384DDFFEFAF1ABF0A88E0A816B1043B
:1007900049F603E712E0EE24E394F12CB7010F2CA5
:1007A000000C880B990B14D19B01AC0160E070E048
:1007B00086E993E472D09CD1D8D0F801619371930B
:1007C0008F01FFEFEF1AFF0A8CE2E81681E0F806CE
:1007D00029F71092800080E18093810021E020932E
:1007E00075028FB780937602F89480EA9FE0909329
:1007F00074028093730290938700809386008091A7
:1008000076028FBF80918100887F809381009091D4
:10081000810080917502982B9093810042EC51E009
:10082000509378024093770220936F00909181005B
:10083000892B8093810061E0F30181913F0126DDE6
:1008400061E0EB81FC818191FC83EB831FDD60E043
:10085000E981FA818191FA83E98318DDF8E36F1663
:10086000F2E07F0641F760E0F40181914F010EDD77
:10087000F0E48F16F2E09F06B1F700E010E00115FA
:100880001105E9F30E940000FACFEE0FFF1F881F49
:100890008BBF0790F691E02D19940CD0EBC0E3D0FC
:1008A00040F0DAD030F021F45F3F19F0CCC05111A4
:1008B00015C1CFC0F0D098F39923C9F35523B1F3F4
:1008C000951B550BBB27AA2762177307840738F0BF
:1008D0009F5F5F4F220F331F441FAA1FA9F333D01E
:1008E0000E2E3AF0E0E830D091505040E695001CD2
:1008F000CAF729D0FE2F27D0660F771F881FBB1F8E
:10090000261737074807AB07B0E809F0BB0B802D67
:10091000BF01FF2793585F4F2AF09E3F510568F0B3
:1009200092C0DCC05F3FECF3983EDCF38695779590
:100930006795B795F7959F5FC9F7880F911D9695B5
:10094000879597F90895E1E0660F771F881FBB1F11
:10095000621773078407BA0720F0621B730B840BBE
:10096000BA0BEE1F88F7E095089504D06894B11192
:10097000B5C0089598D088F09F5790F0B92F992767
:10098000B751A0F0D1F0660F771F881F991F1AF09A
:10099000BA95C9F712C0B13081F09FD0B1E0089587
:1009A0009CC0672F782F8827B85F39F0B93FCCF308
:1009B000869577956795B395D9F73EF49095809590
:1009C000709561957F4F8F4F9F4F0895E89409C0B0
:1009D00097FB3EF490958095709561957F4F8F4F72
:1009E0009F4F9923A9F0F92F96E9BB279395F69588
:1009F000879577956795B795F111F8CFFAF4BB0F06
:100A000011F460FF1BC06F5F7F4F8F4F9F4F16C069
:100A1000882311F096E911C0772321F09EE8872FF3
:100A2000762F05C0662371F096E8862F70E060E0AF
:100A30002AF09A95660F771F881FDAF7880F969528
:100A4000879597F9089597F99F6780E870E060E0CF
:100A500008959FEF80EC089500240A941616170657
:100A600018060906089500240A941216130614069F
:100A700005060895092E0394000C11F4882352F002
:100A8000BB0F40F4BF2B11F460FF04C06F5F7F4FBA
:100A90008F4F9F4F089557FD9058440F551F59F0A1
:100AA0005F3F71F04795880F97FB991F61F09F3F5B
:100AB00079F087950895121613061406551FF2CF84
:100AC0004695F1DF08C0161617061806991FF1CFD4
:100AD00086957105610508940895E894BB276627FB
:100AE0007727CB0197F9089511F40EF4B2CF3EC0E9
:100AF000DADFD0F39923D9F3CEF39F57550B87FF55
:100B000043D00024A0E640EA90018058569597957E
:100B100028F4805C660F771F881F20F026173707A0
:100B2000480730F4621B730B840B202931294A2BB0
:100B3000A69517940794202531254A2758F7660F64
:100B4000771F881F20F026173707480730F4620BFD
:100B5000730B840B200D311D411DA09581F7B90148
:100B6000842F9158880F9695879508959F3F31F06F
:100B7000915020F4879577956795B795880F911DCB
:100B80009695879597F9089591505040660F771F75
:0A0B9000881FD2F70895F894FFCFF4
:100B9A000F34180D35193D450E32160C33173C44E7
:100BAA0000301A0B311B3B43012E1C0A2F1D3A42FF
:100BBA00052C1E092D1F3941042A20082B213840F3
:100BCA00032822072923373F022624062725363EF3
:00000001FF
