:1000000006C1000023C1000021C100001FC1000083
:100010001DC100001BC1000019C1000017C1000074
:1000200015C1000013C1000011C100000FC1000084
:100030000DC100000BC1000009C1000007C1000094
:1000400005C1000003C1000001C10000FFC00000A5
:100050007AC20000FBC00000F9C000002AC2000004
:10006000F5C00000F3C00000F1C00000EFC00000C8
:10007000EDC00000EBC00000E9C00000E7C00000D8
:10008000E5C00000E3C00000E1C00000DFC00000E8
:10009000DDC00000DBC00000D9C00000D7C00000F8
:1000A000D5C00000D3C00000D1C00000CFC0000008
:1000B000CDC00000CBC00000C9C00000C7C0000018
:1000C000C5C00000C3C00000C1C00000BFC0000028
:1000D000BDC00000BBC00000B9C00000B7C0000038
:1000E000B5C000007401770166016A016E01AE01BE
:1000F0007B017F01850189018D01930197019B019E
:10010000AE01A101A501A90100000A0B02090C0D15
:100110000E080703040100000000000000000000BA
:1001200000000000000000000000000000000000CF
:10013000000000001211100000000000000000008C
:1001400000000000000000000000000000000000AF
:100150002200250028002B002E003100340002016F
:100160000000050108010B01000021002400270008
:100170002A002D00300033000101000004010701B6
:100180000A0105050505070508080808020202021C
:100190000A0A080804040404010101010101010123
:1001A0000303030303030303040707070C0C0C0CEE
:1001B0000C0C0C0C020202020606060606060606D7
:1001C0000B0B0B0B0B0B0B0B010210202008081064
:1001D00020401020408002010201080402010102B7
:1001E0000408102040808040201008040201800490
:1001F00002018040201008040201080402010102EB
:1002000004081020408001020408102040801124BE
:100210001FBECFEFD1E2DEBFCDBF00E00CBF12E0CA
:10022000A0E0B2E0E0EFF8E000E00BBF02C0079012
:100230000D92A034B107D9F722E0A0E4B2E001C0EA
:100240001D92A735B207E1F7A9D150C3D9CE90E0EE
:10025000FC01E853FE4F2491FC01EE57FE4F8491C0
:10026000882399F090E0880F991FFC01E859FE4F10
:10027000A591B491FC01E25BFE4F859194918FB7FB
:10028000F894EC91E22BEC938FBF0895362F90E019
:10029000FC01E85FFE4F4491FC01E853FE4F2491BE
:1002A000FC01EE57FE4F9491992309F46AC0442350
:1002B00009F454C050E0FA013197E231F10508F039
:1002C0004DC08827EE58FF4F8F4F08C380918000A4
:1002D0008F7707C0809180008F7D03C08091800060
:1002E000877F809380003AC084B58F7702C084B541
:1002F0008F7D84BD33C08091B0008F7703C0809123
:10030000B0008F7D8093B00029C0809190008F77DE
:1003100007C0809190008F7D03C080919000877FFF
:10032000809390001BC08091A0008F7707C08091C0
:10033000A0008F7D03C08091A000877F8093A000E4
:100340000DC0809120018F7707C0809120018F7DA3
:1003500003C080912001877F80932001E92FF0E086
:10036000EE0FFF1FE25BFE4FA591B4918FB7F8949B
:10037000EC91311103C020952E2301C02E2B2C931C
:100380008FBF08953FB7F89480914502909146023F
:10039000A0914702B091480226B5A89B05C02F3F07
:1003A00019F00196A11DB11D3FBFBA2FA92F982F9B
:1003B0008827820F911DA11DB11DBC01CD0142E016
:1003C000660F771F881F991F4A95D1F708958F925E
:1003D0009F92AF92BF92CF92DF92EF92FF926B010A
:1003E0007C01D0DF4B015C01C114D104E104F104B4
:1003F000E9F0C8DFDC01CB0188199909AA09BB091A
:10040000883E9340A105B10578F321E0C21AD108D6
:10041000E108F10888EE880E83E0981EA11CB11C4B
:10042000C114D104E104F10421F7DECFFF90EF9075
:10043000DF90CF90BF90AF909F908F900895CF9214
:10044000DF92EF92FF920F931F93CF93DF9398E089
:10045000C92ED12C8FE4E82E82E0F82EC0E0D2E045
:100460008E01F70181917F01882321F061E0F8017D
:1004700080810CDF0F5F1F4FF7E5EF16F2E0FF06FC
:1004800081F781E0C81AD10829F783E090E001974D
:10049000F1F760E08991FADEE2E0C830DE07C9F7E3
:1004A000DF91CF911F910F91FF90EF90DF90CF9050
:1004B00008951F920F920FB60F9211242F933F931E
:1004C0008F939F93AF93BF9380914102909142028B
:1004D000A0914302B09144023091400223E0230FE7
:1004E0002D3720F40196A11DB11D05C026E8230F6C
:1004F0000296A11DB11D209340028093410290936A
:100500004202A0934302B09344028091450290912D
:100510004602A0914702B09148020196A11DB11D6B
:100520008093450290934602A0934702B0934802FD
:10053000BF91AF919F918F913F912F910F900FBEDF
:100540000F901F9018951F920F920FB60F921124C3
:100550000BB60F922F933F934F935F936F937F93BD
:100560008F939F93AF93BF93EF93FF93E0914D02CF
:10057000F0914E021995FF91EF91BF91AF919F912C
:100580008F917F916F915F914F913F912F910F903C
:100590000BBE0F900FBE0F901F901895CF93DF9357
:1005A000CDB7DEB762970FB6F894DEBF0FBECDBFF2
:1005B000789484B5826084BD84B5816084BD85B53E
:1005C000826085BD85B5816085BD80916E0081604A
:1005D00080936E00109281008091810082608093F0
:1005E00081008091810081608093810080918000F2
:1005F0008160809380008091B10084608093B1001D
:100600008091B00081608093B00080919100826001
:1006100080939100809191008160809391008091FE
:1006200090008160809390008091A100826080930F
:10063000A1008091A10081608093A1008091A00021
:1006400081608093A00080912101826080932101CC
:10065000809121018160809321018091200181603E
:100660008093200180917A00846080937A00809149
:100670007A00826080937A0080917A008160809312
:100680007A0080917A00806880937A001092C1008D
:1006900030E3232E32E0332E48E2442E42E0542E43
:1006A00080E292E09E878D87E8E1F2E0FA83E983B9
:1006B00080E192E09E838D83E8E0F2E0F887EF83AB
:1006C00080E092E09C838B83E8E3F2E0FA87E9879D
:1006D000FA8BE98B00E012E0E8E0F2E0FC87EB87C0
:1006E00050E1C52E52E0D52E68E1A62E62E0B62E6E
:1006F00070E2872E72E0972E32019101E12CF12CED
:10070000F90181919F01EF87388BA1DDF301819180
:100710003F019DDDF40181914F0199DDF50181914A
:100720005F0195DDF60181916F0191DDEB85FC851F
:100730008191FC87EB878BDDF80181918F0187DD4B
:10074000E989FA898191FA8BE98B81DDFFEFEF1A54
:10075000FF0A2F85388988E0E816F10489F688E1D8
:10076000882E82E0982E00E212E098E2E92E92E0D4
:10077000F92E20E3C22E22E0D22EA12CB12C61E072
:10078000F60181916F0182DD60E0F70181917F01C7
:100790007DDD60E0F80181918F0178DD60E0F4019A
:1007A00081914F0173DD61E0ED81FE818191FE83D6
:1007B000ED836CDD61E0EF81F8858191F887EF834F
:1007C00065DD60E0EB81FC818191FC83EB835EDD84
:1007D00060E0E985FA858191FA87E98757DDFFEFC7
:1007E000AF1ABF0A88E0A816B10449F6109280003B
:1007F00080E18093810021E020934B028FB78093AA
:100800004C02F89480E49CE990934A028093490258
:10081000909387008093860080914C028FBF8091D7
:100820008100887F809381009091810080914B02AC
:10083000982B909381004FE152E050934E024093E9
:100840004D0220936F0090918100892B809381004D
:1008500060E0F20181912F0119DD60E0ED85FE85F8
:100860008191FE87ED8712DD60E0E981FA81819157
:10087000FA83E9830BDDF0E34F16F2E05F0641F700
:1008800060E0F10181911F0101DDF8E32F16F2E034
:100890003F06B1F700E010E060E084E3F7DC60EDD4
:1008A00077E080E090E093DD64EF71E080E090E03D
:1008B0008EDD61E084E3EADC60ED77E080E090E0EB
:1008C00086DD1092500264EF71E080E090E07FDD01
:1008D0000115110509F30E940000DECFEE0FFF1F86
:1008E000881F8BBF0790F691E02D1994F894FFCFE5
:1008F0000E32160C33173C4400301A0B311B3B43AD
:10090000012E1C0A2F1D3A42052C1E092D1F3941AC
:10091000042A20082B213840032822072923373FA7
:10092000022624062725363E0F34180D35193D457D
:00000001FF
