:1000000006C1000023C1000021C100001FC1000083
:100010001DC100001BC1000019C1000017C1000074
:1000200015C1000013C1000011C100000FC1000084
:100030000DC100000BC1000009C1000007C1000094
:1000400005C1000003C1000001C10000FFC00000A5
:10005000E3C10000FBC00000F9C0000093C1000034
:10006000F5C00000F3C00000F1C00000EFC00000C8
:10007000EDC00000EBC00000E9C00000E7C00000D8
:10008000E5C00000E3C00000E1C00000DFC00000E8
:10009000DDC00000DBC00000D9C00000D7C00000F8
:1000A000D5C00000D3C00000D1C00000CFC0000008
:1000B000CDC00000CBC00000C9C00000C7C0000018
:1000C000C5C00000C3C00000C1C00000BFC0000028
:1000D000BDC00000BBC00000B9C00000B7C0000038
:1000E000B5C000007401770166016A016E01AE01BE
:1000F0007B017F01850189018D01930197019B019E
:10010000AE01A101A501A90100000A0B02090C0D15
:100110000E080703040100000000000000000000BA
:1001200000000000000000000000000000000000CF
:10013000000000001211100000000000000000008C
:1001400000000000000000000000000000000000AF
:100150002200250028002B002E003100340002016F
:100160000000050108010B01000021002400270008
:100170002A002D00300033000101000004010701B6
:100180000A0105050505070508080808020202021C
:100190000A0A080804040404010101010101010123
:1001A0000303030303030303040707070C0C0C0CEE
:1001B0000C0C0C0C020202020606060606060606D7
:1001C0000B0B0B0B0B0B0B0B010210202008081064
:1001D00020401020408002010201080402010102B7
:1001E0000408102040808040201008040201800490
:1001F00002018040201008040201080402010102EB
:1002000004081020408001020408102040801124BE
:100210001FBECFEFD1E2DEBFCDBF00E00CBF12E0CA
:10022000A0E0B2E0E4EEF6E000E00BBF02C0079011
:100230000D92A034B107D9F722E0A0E4B2E001C0EA
:100240001D92A934B207E1F710D14AC2D9CE90E08D
:10025000FC01E853FE4F2491FC01EE57FE4F8491C0
:10026000882399F090E0880F991FFC01E859FE4F10
:10027000A591B491FC01E25BFE4F859194918FB7FB
:10028000F894EC91E22BEC938FBF0895362F90E019
:10029000FC01E85FFE4F4491FC01E853FE4F2491BE
:1002A000FC01EE57FE4F9491992309F46AC0442350
:1002B00009F454C050E0FA013197E231F10508F039
:1002C0004DC08827EE58FF4F8F4F02C280918000AB
:1002D0008F7707C0809180008F7D03C08091800060
:1002E000877F809380003AC084B58F7702C084B541
:1002F0008F7D84BD33C08091B0008F7703C0809123
:10030000B0008F7D8093B00029C0809190008F77DE
:1003100007C0809190008F7D03C080919000877FFF
:10032000809390001BC08091A0008F7707C08091C0
:10033000A0008F7D03C08091A000877F8093A000E4
:100340000DC0809120018F7707C0809120018F7DA3
:1003500003C080912001877F80932001E92FF0E086
:10036000EE0FFF1FE25BFE4FA591B4918FB7F8949B
:10037000EC91311103C020952E2301C02E2B2C931C
:100380008FBF08951F920F920FB60F9211242F93D3
:100390003F938F939F93AF93BF938091450290912A
:1003A0004602A0914702B09148023091440223E0F6
:1003B000230F2D3720F40196A11DB11D05C026E89D
:1003C000230F0296A11DB11D209344028093450284
:1003D00090934602A0934702B09348028091400256
:1003E00090914102A0914202B09143020196A11D59
:1003F000B11D8093400290934102A0934202B093BA
:100400004302BF91AF919F918F913F912F910F9098
:100410000FBE0F901F9018951F920F920FB60F925C
:1004200011240BB60F922F933F934F935F936F93CB
:100430007F938F939F93AF93BF93EF93FF93E0E0EE
:10044000F0E01995FF91EF91BF91AF919F918F913E
:100450007F916F915F914F913F912F910F900BBEC4
:100460000F900FBE0F901F901895CF93DF93CDB7CD
:10047000DEB762970FB6F894DEBF0FBECDBF78949B
:1004800084B5826084BD84B5816084BD85B5826099
:1004900085BD85B5816085BD80916E00816080934A
:1004A0006E001092810080918100826080938100B3
:1004B00080918100816080938100809180008160C3
:1004C000809380008091B10084608093B10080911E
:1004D000B00081608093B000809191008260809331
:1004E00091008091910081608093910080919000B3
:1004F0008160809390008091A10082608093A10030
:100500008091A10081608093A1008091A000816012
:100510008093A000809121018260809321018091CD
:10052000210181608093210180912001816080936D
:10053000200180917A00846080937A0080917A0013
:10054000826080937A0080917A00816080937A0043
:1005500080917A00806880937A001092C10098E3BD
:10056000492E92E0592E20E3222E22E0322E88E2FC
:1005700092E09A838983E0E2F2E0FC83EB8388E1F6
:1005800092E09E838D83E0E1F2E0F887EF8388E0DC
:1005900092E09A878987E0E0F2E0FC87EB87FA8BAC
:1005A000E98B08E012E0E0E1F2E0FE87ED8738E158
:1005B000C32E32E0D32E40E2A42E42E0B42E58E205
:1005C000852E52E0952E31019201E12CF12CF9019A
:1005D00081919F01EF87388B3ADEF30181913F01D2
:1005E00036DEF40181914F0132DEF50181915F0128
:1005F0002EDEF60181916F012ADEED85FE85819167
:10060000FE87ED8724DEF80181918F0120DEE989E4
:10061000FA898191FA8BE98B1ADEFFEFEF1AFF0A54
:100620002F85388988E0E816F10489F688E3E82EFA
:1006300082E0F82E00E010E061E0F70181917F0197
:1006400025DE60E0F10181911F0120DE60E0E9819B
:10065000FA818191FA83E98319DE60E0EB81FC8104
:100660008191FC83EB8312DE61E0ED81FE8181915B
:10067000FE83ED830BDE61E0EF81F8858191F887E1
:10068000EF8304DE60E0E985FA858191FA87E987E6
:10069000FDDD60E0EB85FC858191FC87EB87F6DD75
:1006A0000F5F1F4F0830110509F0C6CF60E0F2015F
:1006B00081912F01EBDDF0E44F16F2E05F06B1F718
:1006C00000E010E001151105E9F30E940000FACFE7
:1006D000EE0FFF1F881F8BBF0790F691E02D199436
:0406E000F894FFCFBC
:1006E4000F34180D35193D450E32160C33173C44A2
:1006F40000301A0B311B3B43012E1C0A2F1D3A42BA
:10070400052C1E092D1F3941042A20082B213840AD
:10071400032822072923373F022624062725363EAD
:00000001FF
