:1000000014C1000042C1000040C100003EC1000018
:100010003CC100003AC1000038C1000036C10000F8
:1000200034C1000032C1000030C100002EC1000008
:100030002CC100002AC1000028C1000026C1000018
:1000400024C1000022C1000020C100001EC1000028
:10005000BFC300001AC1000018C100006FC3000038
:1000600014C1000089C200005EC200000EC1000081
:100070000CC100000AC1000008C1000006C1000058
:1000800004C1000002C1000000C10000FEC0000069
:10009000FCC00000FAC00000F8C00000F6C000007C
:1000A000F4C00000F2C00000F0C00000EEC000008C
:1000B000ECC00000EAC00000E8C00000B4C30000CB
:1000C000E4C00000E2C00000E0C00000DEC00000AC
:1000D000DCC00000DAC00000D8C00000D6C00000BC
:1000E000D4C0000058025B024A024E02540292023F
:1000F0005F02630269026D02710277027B027F0276
:100100009202850289028D02000020002300260051
:1001100029002C002F00320000010000030106011D
:10012000090100002100240027002A002D003000D2
:10013000330001010000040107010A010000220050
:10014000250028002B002E003100340002010000A1
:10015000050108010B010505050507050808080844
:10016000020202020A0A080804040404010101014F
:10017000010101010303030303030303040707074A
:100180000C0C0C0C0C0C0C0C0202020206060606EF
:10019000060606060B0B0B0B0B0B0B0B01021020BC
:1001A00020080810204010204080020102010804AD
:1001B0000201010204081020408080402010080441
:1001C000020180040201804020100804020108049A
:1001D00002010102040810204080010204081020DE
:1001E000408000000A0B02090C0D0E0807030401F1
:1001F00000000000000000000000000000000000FF
:1002000000000000000000000000000000001211CB
:1002100010000000000000000000000000000000CE
:100220000000000000000000690E11241FBECFEF87
:10023000D1E2DEBFCDBF00E00CBF12E0A0E0B2E033
:10024000EEE3F2E200E00BBF02C007900D92A8358A
:10025000B107D9F723E0A8E5B2E001C01D92AF3E97
:10026000B207E1F711E0C5E1D1E000E006C0219757
:100270000109802FFE010E94AA0EC431D10780E03F
:100280000807A9F797D40C941D11BACEFC01918DE3
:10029000828D981761F0828DDF01A80FB11D5D96E8
:1002A0008C91928D9F5F9F73928F90E008958FEF56
:1002B0009FEF0895FC01918D828D981731F0828D0A
:1002C000E80FF11D858D90E008958FEF9FEF089561
:1002D000FC01918D228D892F90E0805C9F4F821BC5
:1002E00091098F73992708958FE792E0F1DF21E05C
:1002F000892B09F420E0822F0895FC01848DDF0111
:10030000A80FB11DA35ABF4F2C91848D90E0019688
:100310008F739927848FA689B7892C93A089B18977
:100320008C9180648C93938D848D981306C0028881
:10033000F389E02D80818F7D80830895EF92FF9275
:100340000F931F93CF93DF93EC0181E0888F9B8DF8
:100350008C8D981305C0E889F989808185FD23C0BB
:10036000F62E0B8D10E00F5F1F4F0F731127E02E3D
:100370008C8DE8120BC00FB607FCFACFE889F9891B
:10038000808185FFF5CFCE01B8DFF2CF8B8DFE01E6
:10039000E80FF11DE35AFF4FF0820B8FEA89FB89CA
:1003A0008081806207C0EE89FF896083E889F989CE
:1003B00080818064808381E090E0DF91CF911F9104
:1003C0000F91FF90EF900895CF93DF93EC01888D0C
:1003D0008823C1F0EA89FB89808185FD05C0A88951
:1003E000B9898C9186FD0EC00FB607FCF5CF8081D0
:1003F00085FFF2CFA889B9898C9185FFEDCFCE0119
:100400007CDFE8CFDF91CF91089580E090E0892BE9
:1004100019F06ADF811125C080E090E0892B41F05E
:1004200080E090E0892B21F00E94000081111CC027
:1004300080E090E0892B41F080E090E0892B21F072
:100440000E940000811113C080E090E0892BA1F090
:1004500080E090E0892B81F00E94000081110AC0A9
:1004600008950E940000D8CF0E940000E1CF0E94B2
:100470000000EACF0C940000089590E0FC01319751
:10048000E231F10508F04EC08827EE58FF4F8F4F3C
:100490000C94AA0E809180008F7703C08091800019
:1004A0008F7D80938000089580918000877FF9CFB1
:1004B00084B58F7702C084B58F7D84BD0895809107
:1004C000B0008F7703C08091B0008F7D8093B00023
:1004D0000895809190008F7707C0809190008F7D64
:1004E00003C080919000877F809390000895809151
:1004F000A0008F7707C08091A0008F7D03C08091FE
:10050000A000877F8093A0000895809120018F77BD
:1005100007C0809120018F7D03C080912001877FDB
:100520008093200108951F920F920FB60F9211240D
:100530000BB60F922F933F934F935F936F937F93DD
:100540008F939F93AF93BF93EF93FF938FE792E0C7
:10055000D4DEFF91EF91BF91AF919F918F917F91E9
:100560006F915F914F913F912F910F900BBE0F9024
:100570000FBE0F901F9018951F920F920FB60F92FB
:1005800011240BB60F922F938F939F93EF93FF93AA
:10059000E0918F02F09190028081E0919502F091BC
:1005A000960282FD12C09081809198028F5F8F73B6
:1005B00020919902821751F0E0919802F0E0E15801
:1005C000FD4F958F8093980201C08081FF91EF913C
:1005D0009F918F912F910F900BBE0F900FBE0F9098
:1005E0001F9018951F93CF93DF93282F30E0F901C8
:1005F000EE51FE4F8491F901E456FE4FD491F9017A
:10060000EA5AFE4FC491CC23C1F0162F811135DF79
:10061000EC2FF0E0EE0FFF1FE45CFE4FA591B491CC
:100620008FB7F894111105C09C91ED2FE095E92347
:1006300002C0EC91ED2BEC938FBFDF91CF911F9116
:100640000895CF92DF92EF92FF920F931F93CF9373
:10065000DF9341E050E065E572E08FE792E00CD275
:1006600098E0C92ED12C8EE5E82E82E0F82EC0E06D
:10067000D2E08E01F70181917F01882321F061E0B2
:10068000F8018081AFDF0F5F1F4FF6E6EF16F2E053
:10069000FF0681F781E0C81AD10829F783E090E0CE
:1006A0000197F1F760E089919DDFE2E0C830DE0755
:1006B000C9F7DF91CF911F910F91FF90EF90DF90DD
:1006C000CF900895CF93DF9390E0FC01E456FE4F66
:1006D0002491FC01EA5AFE4F8491882361F190E055
:1006E000880F991FFC01EE5DFE4FC591D491FC016E
:1006F000E45CFE4FA591B491611109C09FB7F894D5
:100700008881209582238883EC912E230BC0623050
:1007100061F49FB7F8943881822F80958323888372
:10072000EC912E2B2C939FBF06C08FB7F894E881D5
:100730002E2B28838FBFDF91CF9108951F920F92A8
:100740000FB60F9211242F933F938F939F93AF93E4
:10075000BF9380916B0290916C02A0916D02B09159
:100760006E0230916A0223E0230F2D3720F40196A8
:10077000A11DB11D05C026E8230F0296A11DB11DC4
:1007800020936A0280936B0290936C02A0936D0297
:10079000B0936E028091660290916702A091680208
:1007A000B09169020196A11DB11D809366029093DC
:1007B0006702A0936802B0936902BF91AF919F91C5
:1007C0008F913F912F910F900FBE0F901F90189512
:1007D0001F920F920FB60F9211240BB60F922F9308
:1007E0003F934F935F936F937F938F939F93AF93B9
:1007F000BF93EF93FF93E0915C02F0915D02199536
:10080000FF91EF91BF91AF919F918F917F916F91E8
:100810005F914F913F912F910F900BBE0F900FBEA4
:100820000F901F9018951F920F920FB60F921124E0
:100830000BB60F922F933F934F935F936F937F93DA
:100840008F939F93AF93BF93CF93DF93EF93FF93D8
:1008500020911D0330E0F901EE51FE4F8491F90122
:10086000E456FE4FD491F901EA5AFE4FC491CC23CD
:1008700099F0811102DEEC2FF0E0EE0FFF1FE85F30
:10088000FE4FA591B491EC91ED2331E020E009F405
:1008900030E0832F922F02C080E090E0209121036E
:1008A000309122032F5F3F4F309322032093210387
:1008B00020912003253618F026E020931C03209178
:1008C0001C032430D9F128F4223069F02330D9F008
:1008D00060C0253009F453C0263009F05AC021E029
:1008E0002093ED0353C0009709F053C020912103DA
:1008F000309122032436310508F443C01092ED03F1
:10090000109220031DC08130910509F042C0E09192
:10091000200321E02E0F20932003F0E020912103FB
:1009200030912203EE0FFF1FE45EFC4F30872783D8
:10093000109222031092210324E029C00097B9F4F9
:10094000E091200321E02E0F20932003F0E020917E
:10095000210330912203EE0FFF1FE45EFC4F30872E
:100960002783109222031092210323E010C02091CC
:100970002103309122032536310558F007C0009736
:1009800041F4109222031092210303C025E020932A
:100990001C0320911F032223B1F0892B51F4809175
:1009A0001E03882321F080911E0361E009C02F9A65
:1009B0000AC080911E03882329F080911E0360E005
:1009C00011DE01C02F98FF91EF91DF91CF91BF9180
:1009D000AF919F918F917F916F915F914F913F91D7
:1009E0002F910F900BBE0F900FBE0F901F90189578
:1009F000CF92DF92EF92FF92CF93DF93EC01072E1D
:100A0000000C880B990B0E9406106B017C0120E002
:100A100030E040E45FE30E94B61020E030E048E4BC
:100A200052E40E946B0F0E94D30FC617D707D4F071
:100A300020E030E040EA5FE3C701B6010E94B61053
:100A400020E030E048E452E40E946B0F20E030E008
:100A500040E85FE30E94030F0E94D30F21E06C1770
:100A60007D070CF420E0822F90E0DF91CF91FF9082
:100A7000EF90DF90CF900895CF92DF92EF92FF92A8
:100A80000F931F93CF93DF936C017A018B01C0E02A
:100A9000D0E0CE15DF0589F0D8016D918D01D6012A
:100AA000ED91FC910190F081E02DC6011995892B03
:100AB00011F47E0102C02196ECCFC701DF91CF91E6
:100AC0001F910F91FF90EF90DF90CF9008950E94BB
:100AD00019118F929F92AF92BF92CF92DF92EF92B5
:100AE000FF920F931F93CF93DF93FC01C081D181BD
:100AF00020917B0230917C02C217D3070CF048C0D2
:100B00009E01220F331FE0917902F0917A02E20FE9
:100B1000F31F80809180C170DD27F1E0CF272097FF
:100B200019F404E610E002C00CE91FEF7A015B0142
:100B30006C01040F151FB801C4015ADF892B89F419
:100B40000E0D1F1DB801C40153DF892B69F4B801D4
:100B50006E0D7F1DC4014CDF892BE9F023E030E0EE
:100B600005C021E030E002C022E030E0F5018081E4
:100B700091810196821793073CF0F5011182108252
:100B8000F60180819181019691838083CE0105C019
:100B900081E090E002C08FEF9FEFDF91CF911F9136
:100BA0000F91FF90EF90DF90CF90BF90AF909F900C
:100BB0008F900895CF93DF93CDB7DEB768970FB6C8
:100BC000F894DEBF0FBECDBF789484B5826084BD3B
:100BD00084B5816084BD85B5826085BD85B5816041
:100BE00085BD80916E00816080936E0010928100BF
:100BF000809181008260809381008091810081607A
:100C0000809381008091800081608093800080913A
:100C1000B10084608093B1008091B00081608093C6
:100C2000B00080919100826080939100809191004A
:100C3000816080939100809190008160809390000A
:100C40008091A10082608093A1008091A1008160C9
:100C50008093A1008091A00081608093A00080918A
:100C60002101826080932101809121018160809324
:100C700021018091200181608093200180917A0080
:100C8000846080937A0080917A00826080937A00F9
:100C900080917A00816080937A0080917A008068E8
:100CA00080937A001092C10030E3632E32E0732EFD
:100CB00048E2242E42E0342E80E292E09E838D832F
:100CC000A8E1B2E0BC87AB87E0E1F2E0FA8BE98B08
:100CD00088E092E09E878D87A0E0B2E0BC8BAB8B72
:100CE000E8E3F2E0FE8BED8B8F017D016C0150E1BA
:100CF000A52E52E0B52E68E1862E62E0962E80E2A7
:100D000092E0988B8F8738862F829301412C512C4B
:100D100061E0F90181919F01EF8B388FD3DC61E0B5
:100D2000AF81B8858D91B887AF83CCDC61E0EF856A
:100D3000F8898191F88BEF87C5DC61E0D4018D9152
:100D40004D01C0DC61E0F50181915F01BBDC61E038
:100D5000D6018D916D01B6DC61E0F70181917F01D3
:100D6000B1DC61E0D8018D918D01ACDCBFEF4B1A95
:100D70005B0A2F89388DE8E04E16510449F608E1E8
:100D800012E080E2E82E82E0F82E98E2C92E92E08E
:100D9000D92E20E3A22E22E0B22E812C912C61E0EC
:100DA000D5018D915D011EDC60E0F60181916F013E
:100DB00019DC60E0D7018D917D0114DC60E0F80161
:100DC00081918F010FDC61E0A989BA898D91BA8B7D
:100DD000A98B08DC61E0ED85FE858191FE87ED87BA
:100DE00001DC60E0AB89BC898D91BC8BAB8BFADBFD
:100DF00060E0ED89FE898191FE8BED8BF3DBFFEFE7
:100E00008F1A9F0A28E08216910449F6E0918F021A
:100E1000F091900212E01083E0918B02F0918C022D
:100E20001082E0918D02F0918E0200E10083109219
:100E30009702E0919302F091940286E08083E09122
:100E40009102F0919202808180618083E091910211
:100E5000F0919202808188608083E0919102F0910C
:100E60009202808180688083E0919102F0919202E9
:100E700080818F7D808344E050E060E572E08FE701
:100E800092E0FADDF8941092200189E0809321012C
:100E900080E293E09093290180932801109225012C
:100EA0001092240110937300789410931C031092F5
:100EB000200380911D0360E005DC10928000009308
:100EC000810021E020935A028FB780935B02F8944F
:100ED00080EA9FE090935902809358029093870094
:100EE0008093860080915B028FBF80918100887F14
:100EF000809381009091810080915A02982B909369
:100F0000810041E253E050935D0240935C022093E4
:100F10006F0090918100892B8093810060E0D10166
:100F20008D911D015FDB60E0ED81FE818191FE838B
:100F3000ED8358DB60E0AB85BC858D91BC87AB87CA
:100F400051DBB0E32B16B2E03B0641F760E0F30162
:100F500081913F0147DBF8E36F16F2E07F06B1F7BE
:100F600044244A94542C320183E293E090937A0211
:100F7000809379028091200390E090937C0280938B
:100F80007B028091ED0390E090937E0280937D023E
:100F900080911C03853009F055C280912503909102
:100FA0002603885891098D35910588F48091200396
:100FB000843041F4809127039091280380974797CC
:100FC00008F45CC280912003843408F03EC2809112
:100FD00020038A3108F44FC08091230390912403A9
:100FE000843F914068F41092780210927702409208
:100FF000730250927402609275027092760259C028
:10100000809125039091260385974B97A0F5E9E2FF
:10101000F3E082E090E0C12CD12C7601AC014F5F6F
:101020005F4F2091200330E0421753075CF4DF014B
:1010300012972D913C91275031092730310508F442
:1010400065C2CA0101979595879590937802809320
:1010500077020C972CF410927802109277020BC052
:10106000C0927302D0927402E0927502F0927602FE
:1010700084E090E020C3809120038A3108F44CC0C2
:1010800080912303909124038032934008F4ABCFE6
:101090008091250390912603C697869708F453C242
:1010A0003BC0C0927302D0927402E0927502F0923B
:1010B00076028BE090E0FFC2208131812552310918
:1010C0002B31310508F04FC2CC0CDD1CEE1CFF1C8F
:1010D0006894C0F802963496AC014F5F5F4F209140
:1010E000200330E04217530754F4DF0112972D918B
:1010F0003C912C5031092B303105F0F2CA01019797
:101100009595879590937802809377020C974CF68B
:10111000109278021092770280912003823208F4B4
:101120004DC080912503909126030697079708F0FC
:1011300045C0E9E2F3E082E090E0C12CD12C7601D9
:101140009C012F5F3F4F4091200350E0241735074B
:10115000E4F4DF0112974D915C9111974E515109C2
:101160004731510508F00CC2CC0CDD1CEE1CFF1CF5
:101170006894C0F8408151813496435051094530FC
:10118000510510F40296DCCFC9010197959587951A
:10119000909378028093770240972CF41092780213
:1011A000109277020BC0C0927302D0927402E09248
:1011B0007502F09276028CE090E07DC21C821B8268
:1011C00081E090E09A838983809120038D3008F438
:1011D0006AC049E753E0BE016D5F7F4FCE010196C3
:1011E00078DC892B09F05FC049E753E0BE016D5FF1
:1011F0007F4FCE0101966DDC019709F054C049E79D
:1012000053E0BE016D5F7F4FCE01019662DC892BFA
:1012100009F049C0812C912C540100E010E080912C
:10122000200390E029813A81281739074CF549E7D6
:1012300053E0BE016D5F7F4FCE0101964ADC7C0119
:1012400049E753E0BE016D5F7F4FCE01019641DC5F
:10125000A1E0EA16F10449F4892B29F5880C991CC0
:10126000AA1CBB1C689480F808C0EF28E1F4019721
:10127000D1F4880C991CAA1CBB1C0F5F1F4FCFCF49
:101280001093780200937702809273029092740216
:10129000A0927502B0927602E1E0F0E0F093700265
:1012A000E0936F02B4C01C821B8281E090E09A83BD
:1012B000898380917B0290917C02181619060CF0AC
:1012C00054C0E0917902F0917A0282E090E09A8332
:1012D00089838281938189974E9708F046C0A3E065
:1012E000B0E0BA83A983848195810B970A9708F0AF
:1012F0003CC04CEB51E0BE016D5F7F4FCE010196CB
:10130000E8DB892B91F54CEB51E0BE016D5F7F4F1F
:10131000CE010196DEDB019741F5812C912C540121
:1013200000E010E029813A8180917B0290917C025B
:10133000281739070CF065C14CEB51E0BE016D5F19
:101340007F4FCE010196C5DB6C010330110509F01A
:1013500024C14CEB51E0BE016D5F7F4FCE01019681
:10136000B8DBC816D90609F418C1E0917902F091EA
:101370007A0282819381C697869708F0B3C18481EF
:1013800095814B97459708F0ADC1DF0116967F0117
:1013900026ECE20EF11C20E030E040E050E060E09E
:1013A00070E080E090E00D911C91119709501109B7
:1013B0000830110508F096C112960D911C911397F3
:1013C000015111090D30110508F02AC101E0D4D4F2
:1013D00021601496AE15BF0531F720937302309348
:1013E0007402409375025093760200E2E0D4209399
:1013F00071023093720285E090E0909370028093C6
:101400006F0280E390E0909378028093770280915E
:10141000730290917402A0917502B09176028F3C94
:10142000E0E39E07EFEFAE07B10509F049C160E0C8
:1014300084E3D8D881E080935F0282E080931C032C
:10144000109220030E9405028FCD80912703909176
:101450002803825491098E9708F0B9CD80E090E07E
:1014600040E050E0BA01FC01E75DFC4F2081318192
:101470002950310929303105C0F0A9CD80912903C7
:1014800090912A030997099708F09CCD1092780251
:101490001092770240927302509274026092750229
:1014A0007092760283E090E006C1FC01E55DFC4F9E
:1014B000208131812751310922313105D0F4440F87
:1014C000551F661F771F416004968038910559F6B5
:1014D000A0E2B0E0B0937802A09377024093730249
:1014E000509374026093750270937602E3E0F0E02B
:1014F000D5CE20813181265031092730310508F0C1
:1015000066CD440F551F661F771FDECF20813181C6
:10151000235131092F30310548F4CC0CDD1CEE1C71
:10152000FF1C6894C0F80296349678CD20813181F2
:101530002A5031092930310508F09DCDCC0CDD1C35
:10154000EE1CFF1CF0CF8091270390912803C697D3
:10155000869708F0E1CDEBE2F3E083E090E0C12C68
:10156000D12C7601B9CD208131812C5031092A301E
:10157000310508F0D1CDCC0CDD1CEE1CFF1CAACD32
:101580004D915C914C5051094B30510508F016CEED
:10159000CC0CDD1CEE1CFF1CEDCD4CEB51E0BE0174
:1015A0006D5F7F4FCE01019694DA7C010330110507
:1015B00061F44CEB51E0BE016D5F7F4FCE010196AF
:1015C00088DAE816F90609F0D0CEC114D10459F42E
:1015D000EA94EF2809F0C9CE880C991CAA1CBB1C00
:1015E000689480F80BC0CA94CD2809F0BECEEF28CD
:1015F00009F0BBCE880C991CAA1CBB1C0F5F1F4FA7
:1016000091CE1093780200937702809273029092A9
:101610007402A0927502B092760282E090E04BC014
:1016200012960D911C911397045011090530110564
:1016300008F058C001E0A0D3CCCEA8014250510917
:10164000DA014D915C91495051094830510508F03B
:10165000F7C0BC016F5F7F4FD8014D915C9147503F
:1016600051094730510508F0E9C2220F331F2160AC
:1016700002960C5F1F4F4091200350E044505109E7
:1016800084179507D4F201979595879590937802E2
:10169000809377028A970CF4D3C0C901330FAA0B49
:1016A000BB0B8093730290937402A0937502B09366
:1016B000760289E090E09093700280936F02A7CE4B
:1016C0008538FAE79F07FFEFAF07B10519F41092CD
:1016D0005F02B3CE873E9841AF4FB10509F0ADCE62
:1016E00061E0A6CE80912003893370F182819381DD
:1016F000895791098335910508F43FC125C0D90167
:1017000012966D917C911397665171096131710543
:1017100008F05FC1D701C601880F991FAA1FBB1F20
:101720006C017D016894C0F84E5F5F4F2C5F3F4FA6
:101730004B33510509F430C1D9016D917C916A5048
:10174000710969307105D8F280912003823231F439
:10175000828193810A97099708F44BC18281938112
:101760008957910983359105D0F480912003813206
:10177000B0F084819581CA97899788F49F012A5F88
:101780003F4FC12CD12C760143E050E0D9016D913F
:101790007C916A5071096930710508F44CC18281ED
:1017A00093818C549109C59778F4809120038430FB
:1017B00031F4848195818097479708F49DC1809189
:1017C0002003843408F07FC180912003863460F1C7
:1017D000828193810C970B9708F4D9C125C0D90158
:1017E00012966D917C9113976E5171096731710555
:1017F00008F005C2D701C601880F991FAA1FBB1F99
:101800006C017D016894C0F84E5F5F4F2C5F3F4FC5
:101810004534510509F4D6C1D9016D917C916C50C4
:1018200071096B307105D8F280912003883540F042
:1018300082819381855891098B35910508F4EFC118
:10184000809120038032E1F482819381069706978C
:10185000B8F4848195810997099790F49F012A5FD4
:101860003F4FBF01625C7F4FC12CD12C7601D90163
:101870004D915C91465051094630510508F4EBC139
:1018800080917B0290917C029E838D8306970CF45D
:10189000D4CD1F0196E0290E311C95ECC92E9DE98F
:1018A000D92E9CE1E92E91E8F92E03E010E0D10158
:1018B0006D917C91F1013497A080B18080E090E03F
:1018C000A3D36F83788789879A87B50180E090E0FA
:1018D0009BD34B015C012DEC3CEC4CE45FE346D424
:1018E0009B01AC016F81788589859A85F0D287FD4F
:1018F00017C02DEC3CEC4CE45FE36F817885898563
:101900009A8534D49B01AC01C501B401E0D2E82F23
:10191000880FFF0BEE27FF0FEE1FFF27319602C047
:10192000E0E0F0E0A701960163E971E080E091E07A
:1019300002D26F01FF0FEE08FF08C626D726E82661
:10194000F9260F5F1F4FB2E02B0E311CED81FE8197
:101950000E171F0709F0ABCFC0927302D09274022A
:10196000E0927502F092760280E290E09093780225
:10197000809377028FEF9FEF9ECE84819581CA97E7
:10198000899708F0E1CE9F012A5F3F4FC12CD12CEF
:10199000760143E050E0D0CE9F012A583F4FD90155
:1019A0002D913C912A5031092930310508F0CCCED7
:1019B0002CE130E03093780220937702C0927302DA
:1019C000D0927402E0927502F09276028AE090E082
:1019D00072CED90112966D917C9113976650710960
:1019E0006730710508F0B0CECC0CDD1CEE1CFF1C7E
:1019F0009BCE20912003CF01820F911D820F911D5C
:101A0000DC0112978D919C910A97099708F0A6CE58
:101A100010927802109277024092730250927402F0
:101A20006092750270927602A6E0B0E0B093700208
:101A3000A0936F02ECCCD90112966D917C91139713
:101A4000665171096131710598F112966D917C9121
:101A50001397665071096730710508F0A0CECC0C61
:101A6000DD1CEE1CFF1C4E5F5F4F2C5F3F4F43326F
:101A7000510509F08BCE9F012A5B3F4FD9012D9173
:101A80003C912A5031092930310508F088CEE0E137
:101A9000F0E0F0937802E0937702C0927302D09264
:101AA0007402E0927502F092760286E090E003CE36
:101AB000D701C601880F991FAA1FBB1F6C017D01AA
:101AC0006894C0F8D0CF8481958189549109C397D7
:101AD00008F07ACE9F012A5F3F4FBF016A577F4FC0
:101AE000C12CD12C7601D9014D915C9149505109FD
:101AF00049305105A0F068CE8681978109970997F2
:101B000008F05DCE10927802109277024092730234
:101B1000509274026092750270927602D7C0D90119
:101B200012964D915C9113974651510941315105DF
:101B3000F0F4D701C601880F991FAA1FBB1F6C01C3
:101B40007D016894C0F82C5F3F4F2617370759F680
:101B5000E0E2F0E0F0937802E0937702C092730243
:101B6000D0927402E0927502F0927602AFC0D90171
:101B700012964D915C91139746505109473051058B
:101B800008F022CECC0CDD1CEE1CFF1CDCCF8481C7
:101B900095810997099708F047CE868197818C97A0
:101BA0004F9708F041CE8085918589974D9708F031
:101BB0003BCE9F01265F3F4FC12CD12C760145E0E3
:101BC00050E02ACE9F0126573F4FD9012D913C91DD
:101BD0002C5031092B30310508F026CEE0E2F0E040
:101BE000F0937802E0937702C0927302D09274026D
:101BF000E0927502F092760288E090E05CCDD90127
:101C000012966D917C911397695071096930710535
:101C100008F00ACECC0CDD1CEE1CFF1CF5CD848137
:101C20009581825491098E9708F00ACE8F01045C49
:101C30001F4F8DE190E020E030E01DCDD8014D91A7
:101C40005C91485151094231510510F0CB011BCD37
:101C5000220F331F0DCDD90112964D915C91139730
:101C6000495151094331510508F5D701C601880F83
:101C7000991FAA1FBB1F6C017D016894C0F82C5FDF
:101C80003F4F2617370709F0F2CD2EE030E03093B2
:101C9000780220937702C0927302D0927402E0928D
:101CA0007502F09276028FE090E005CDD901129690
:101CB0004D915C911397495051094930510508F0F5
:101CC000DFCDCC0CDD1CEE1CFF1CD9CF87E090E0F3
:101CD000F2CCEFE7F2E01382128288EE93E0A0E00C
:101CE000B0E084839583A683B78384E492E09183F4
:101CF000808385EC90E09587848784EC90E09787DB
:101D0000868780EC90E0918B808B81EC90E0938BC8
:101D1000828B82EC90E0958B848B86EC90E0978BA5
:101D2000868B118E128E138E148EECE1F3E085E11A
:101D3000818313820895DB018F939F9313D0BF910A
:101D4000AF91A29F800D911DA39F900DB29F900D0A
:101D500011240895EE0FFF1F881F8BBF0790F69187
:101D6000E02D199440D0A59F900DB49F900DA49F95
:101D7000800D911D112408950F93083090F0982F35
:101D8000872F762F652F542F432F322F222708506D
:101D9000F4CF220F331F441F551F661F771F881F64
:101DA000991F0A95B2F70F91089597FB10F81694B2
:101DB00000080F93083098F00850232F342F452F38
:101DC000562F672F782F892F902DF4CF0594979554
:101DD00087957795679557954795379527950A95F0
:101DE000AAF70F910895A29FB001B39FC001A39FCE
:101DF000700D811D1124911DB29F700D811D112444
:101E0000911D08955058BB27AA270ED075C166D1E1
:101E100030F06BD120F031F49F3F11F41EF45BC120
:101E20000EF4E095E7FB51C1E92F77D180F3BA17A3
:101E3000620773078407950718F071F49EF58FC148
:101E40000EF4E0950B2EBA2FA02D0B01B9019001D5
:101E50000C01CA01A0011124FF27591B99F0593F19
:101E600050F4503E68F11A16F040A22F232F342F61
:101E70004427585FF3CF469537952795A795F040AF
:101E80005395C9F77EF41F16BA0B620B730B840BC4
:101E9000BAF09150A1F0FF0FBB1F661F771F881F7C
:101EA000C2F70EC0BA0F621F731F841F48F48795D4
:101EB00077956795B795F7959E3F08F0B3CF9395C3
:101EC000880F08F09927EE0F979587950895D9D038
:101ED00008F481E008950CD00FC107D140F0FED086
:101EE00030F021F45F3F19F0F0C0511139C1F3C057
:101EF00014D198F39923C9F35523B1F3951B550BCE
:101F0000BB27AA2762177307840738F09F5F5F4FCC
:101F1000220F331F441FAA1FA9F333D00E2E3AF00D
:101F2000E0E830D091505040E695001CCAF729D027
:101F3000FE2F27D0660F771F881FBB1F2617370776
:101F40004807AB07B0E809F0BB0B802DBF01FF27A6
:101F500093585F4F2AF09E3F510568F0B6C000C10C
:101F60005F3FECF3983EDCF3869577956795B795E0
:101F7000F7959F5FC9F7880F911D9695879597F9FB
:101F80000895E1E0660F771F881FBB1F6217730774
:101F90008407BA0720F0621B730B840BBA0BEE1F89
:101FA00088F7E095089504D06894B111D9C00895D8
:101FB000BCD088F09F5790F0B92F9927B751A0F067
:101FC000D1F0660F771F881F991F1AF0BA95C9F7CD
:101FD00012C0B13081F0C3D0B1E00895C0C0672F06
:101FE000782F8827B85F39F0B93FCCF3869577957D
:101FF0006795B395D9F73EF4909580957095619566
:102000007F4F8F4F9F4F0895E89409C097FB3EF490
:1020100090958095709561957F4F8F4F9F4F992335
:10202000A9F0F92F96E9BB279395F69587957795B3
:102030006795B795F111F8CFFAF4BB0F11F460FF73
:102040001BC06F5F7F4F8F4F9F4F16C0882311F0CB
:1020500096E911C0772321F09EE8872F762F05C0DF
:10206000662371F096E8862F70E060E02AF09A957A
:10207000660F771F881FDAF7880F9695879597F96F
:102080000895990F0008550FAA0BE0E8FEEF161609
:102090001706E807F907C0F012161306E407F5075C
:1020A00098F0621B730B840B950B39F40A2661F0D0
:1020B000232B242B252B21F408950A2609F4A14073
:1020C000A6958FEF811D811D089597F99F6780E880
:1020D00070E060E008959FEF80EC089500240A947A
:1020E0001616170618060906089500240A941216F3
:1020F0001306140605060895092E0394000C11F426
:10210000882352F0BB0F40F4BF2B11F460FF04C0D2
:102110006F5F7F4F8F4F9F4F089557FD9058440F2B
:10212000551F59F05F3F71F04795880F97FB991F36
:1021300061F09F3F79F087950895121613061406F3
:10214000551FF2CF4695F1DF08C016161706180680
:10215000991FF1CF86957105610508940895E8945B
:10216000BB2766277727CB0197F908950BD0C4CFFB
:10217000B5DF28F0BADF18F0952309F0A6CFABCF72
:102180001124EECFCADFA0F3959FD1F3950F50E055
:10219000551F629FF001729FBB27F00DB11D639F19
:1021A000AA27F00DB11DAA1F649F6627B00DA11DBF
:1021B000661F829F2227B00DA11D621F739FB00D65
:1021C000A11D621F839FA00D611D221F749F3327D5
:1021D000A00D611D231F849F600D211D822F762F6E
:1021E0006A2F11249F5750408AF0E1F088234AF06B
:1021F000EE0FFF1FBB1F661F771F881F91505040B7
:10220000A9F79E3F510570F060CFAACF5F3FECF376
:10221000983EDCF3869577956795B795F795E795A2
:102220009F5FC1F7FE2B880F911D9695879597F9B3
:0E223000089581E090E0F89400C0F894FFCF8C
:10223E000E32160C33173C4400301A0B311B3B4345
:10224E00012E1C0A2F1D3A42052C1E092D1F394145
:10225E00042A20082B213840032822072923373F40
:10226E00022624062725363E0F34180D35193D4516
:10227E00000000009E013C05680146015A01E40180
:08228E00696E69740061000033
:00000001FF
