:1000000007C1000033C1000031C100002FC1000052
:100010002DC100002BC1000029C1000027C1000034
:1000200025C1000023C1000021C100001FC1000044
:100030001DC100001BC1000019C1000017C1000054
:1000400015C1000013C1000011C100000FC1000064
:1000500013C400000BC1000009C10000C3C30000AD
:1000600005C1000089C300005EC30000FFC000009E
:10007000FDC00000FBC00000F9C00000F7C0000098
:10008000F5C00000F3C00000F1C00000EFC00000A8
:10009000EDC00000EBC00000E9C00000E7C00000B8
:1000A000E5C00000E3C00000E1C00000DFC00000C8
:1000B000DDC00000DBC00000D9C00000D7C00000D8
:1000C000D5C00000D3C00000D1C00000CFC00000E8
:1000D000CDC00000CBC00000C9C00000C7C00000F8
:1000E000C5C00000A602A90298029C02A002E0027C
:1000F000AD02B102B702BB02BF02C502C902CD0206
:10010000E002D302D702DB0200000A0B02090C0D49
:100110000E080703040100000000000000000000BA
:1001200000000000000000000000000000000000CF
:10013000000000001211100000000000000000008C
:1001400000000000000000000000000000000000AF
:100150002200250028002B002E003100340002016F
:100160000000050108010B01000021002400270008
:100170002A002D00300033000101000004010701B6
:100180000A0105050505070508080808020202021C
:100190000A0A080804040404010101010101010123
:1001A0000303030303030303040707070C0C0C0CEE
:1001B0000C0C0C0C020202020606060606060606D7
:1001C0000B0B0B0B0B0B0B0B010210202008081064
:1001D00020401020408002010201080402010102B7
:1001E0000408102040808040201008040201800490
:1001F00002018040201008040201080402010102EB
:1002000004081020408001020408102040803A06B3
:1002100011241FBECFEFD1E2DEBFCDBF00E00CBF87
:1002200012E0A0E0B2E0EAEEFCE000E00BBF02C0AA
:1002300007900D92A835B107D9F723E0A8E5B2E001
:1002400001C01D92AC30B207E1F711E0C8E0D1E087
:1002500000E005C021970109802FFE0138D5C73085
:10026000D10780E00807B1F732D33DC5C9CE90E091
:10027000FC01E853FE4F2491FC01EE57FE4F8491A0
:10028000882399F090E0880F991FFC01E859FE4FF0
:10029000A591B491FC01E25BFE4F859194918FB7DB
:1002A000F894EC91E22BEC938FBF0895CF92DF92FC
:1002B000EF92FF920F931F93CF93DF936C017A011C
:1002C0008B01C0E0D0E0CE15DF0589F0D8016D913B
:1002D0008D01D601ED91FC910190F081E02DC601D8
:1002E0001995892B11F47E0102C02196ECCFC7012C
:1002F000DF91CF911F910F91FF90EF90DF90CF9002
:100300000895FC01918D828D981761F0828DDF0137
:10031000A80FB11D5D968C91928D9F5F9F73928FF8
:1003200090E008958FEF9FEF0895FC01918D828DED
:10033000981731F0828DE80FF11D858D90E00895BA
:100340008FEF9FEF0895FC01918D228D892F90E012
:10035000805C9F4F821B91098F739927089587E6D0
:1003600092E0F1DF21E0892B09F420E0822F08954B
:10037000FC01848DDF01A80FB11DA35ABF4F2C9142
:10038000848D90E001968F739927848FA689B78911
:100390002C93A089B1898C9180648C93938D848DEA
:1003A000981306C00288F389E02D80818F7D8083B9
:1003B0000895EF92FF920F931F93CF93DF93EC0179
:1003C00081E0888F9B8D8C8D981305C0E889F98911
:1003D000808185FD23C0F62E0B8D10E00F5F1F4F2F
:1003E0000F731127E02E8C8DE8120BC00FB607FC9F
:1003F000FACFE889F989808185FFF5CFCE01B8DF92
:10040000F2CF8B8DFE01E80FF11DE35AFF4FF08212
:100410000B8FEA89FB898081806207C0EE89FF89A2
:100420006083E889F98980818064808381E090E03D
:10043000DF91CF911F910F91FF90EF900895CF938F
:10044000DF93EC01888D8823C1F0EA89FB898081E4
:1004500085FD05C0A889B9898C9186FD0EC00FB6AF
:1004600007FCF5CF808185FFF2CFA889B9898C91EF
:1004700085FFEDCFCE017CDFE8CFDF91CF910895EE
:1004800080E090E0892B19F06ADF811125C080E0BF
:1004900090E0892B41F080E090E0892B21F00E94D0
:1004A000000081111CC080E090E0892B41F080E0C9
:1004B00090E0892B21F00E940000811113C080E0A0
:1004C00090E0892BA1F080E090E0892B81F00E94E0
:1004D000000081110AC008950E940000D8CF0E9438
:1004E0000000E1CF0E940000EACF0C9400000895C4
:1004F000362F90E0FC01E85FFE4F4491FC01E85389
:10050000FE4F2491FC01EE57FE4F9491992309F47C
:100510006AC0442309F454C050E0FA013197E23133
:10052000F10508F04DC08827EE58FF4F8F4FCFC31D
:10053000809180008F7707C0809180008F7D03C0FD
:1005400080918000877F809380003AC084B58F7748
:1005500002C084B58F7D84BD33C08091B0008F7799
:1005600003C08091B0008F7D8093B00029C080913E
:1005700090008F7707C0809190008F7D03C080919D
:100580009000877F809390001BC08091A0008F77A0
:1005900007C08091A0008F7D03C08091A000877F5D
:1005A0008093A0000DC0809120018F7707C08091BB
:1005B00020018F7D03C080912001877F80932001DF
:1005C000E92FF0E0EE0FFF1FE25BFE4FA591B49123
:1005D0008FB7F894EC91311103C020952E2301C000
:1005E0002E2B2C938FBF08953FB7F89480915D0216
:1005F00090915E02A0915F02B091600226B5A89B27
:1006000005C02F3F19F00196A11DB11D3FBFBA2FA4
:10061000A92F982F8827820F911DA11DB11DBC0104
:10062000CD0142E0660F771F881F991F4A95D1F7C9
:1006300008958F929F92AF92BF92CF92DF92EF92E6
:10064000FF926B017C01D0DF4B015C01C114D1042E
:10065000E104F104E9F0C8DFDC01CB018819990954
:10066000AA09BB09883E9340A105B10578F321E0B2
:10067000C21AD108E108F10888EE880E83E0981EBE
:10068000A11CB11CC114D104E104F10421F7DECF97
:10069000FF90EF90DF90CF90BF90AF909F908F90A2
:1006A00008951DD3CF92DF92EF92FF920F931F9385
:1006B000CF93DF9341E050E060E572E087E692E09F
:1006C000F5DD98E0C92ED12C84E0E82E83E0F82EE9
:1006D000C0E1D2E08E01F70181917F01882321F0F2
:1006E00061E0F801808104DF0F5F1F4FFCE0EF162F
:1006F000F3E0FF0681F781E0C81AD10829F783E00B
:1007000090E00197F1F760E08991F2DEE2E0C83114
:10071000DE07C9F7DF91CF911F910F91FF90EF9006
:10072000DF90CF9008951F920F920FB60F92112471
:100730000BB60F922F933F934F935F936F937F93DB
:100740008F939F93AF93BF93EF93FF9387E692E0CE
:100750000FDEFF91EF91BF91AF919F918F917F91AC
:100760006F915F914F913F912F910F900BBE0F9022
:100770000FBE0F901F9018951F920F920FB60F92F9
:1007800011240BB60F922F938F939F93EF93FF93A8
:10079000E0917702F09178028081E0917D02F09102
:1007A0007E0282FD12C09081809180028F5F8F73E4
:1007B00020918102821751F0E0918002F0E0E95926
:1007C000FD4F958F8093800201C08081FF91EF9152
:1007D0009F918F912F910F900BBE0F900FBE0F9096
:1007E0001F9018951F920F920FB60F9211242F93FE
:1007F0003F938F939F93AF93BF93809159029091B2
:100800005A02A0915B02B0915C023091580223E041
:10081000230F2D3720F40196A11DB11D05C026E838
:10082000230F0296A11DB11D2093580280935902F7
:1008300090935A02A0935B02B0935C0280915D0298
:1008400090915E02A0915F02B09160020196A11D9D
:10085000B11D80935D0290935E02A0935F02B093FE
:100860006002BF91AF919F918F913F912F910F9017
:100870000FBE0F901F9018951F920F920FB60F92F8
:1008800011240BB60F922F933F934F935F936F9367
:100890007F938F939F93AF93BF93EF93FF93E091D9
:1008A0006502F09166021995FF91EF91BF91AF91AA
:1008B0009F918F917F916F915F914F913F912F9178
:1008C0000F900BBE0F900FBE0F901F901895CF93F7
:1008D000DF93CDB7DEB762970FB6F894DEBF0FBED9
:1008E000CDBF789484B5826084BD84B5816084BDB9
:1008F00085B5826085BD85B5816085BD80916E00BE
:10090000816080936E0010928100809181008260EE
:10091000809381008091810081608093810080912B
:1009200080008160809380008091B100846080931A
:10093000B1008091B00081608093B00080919100FF
:1009400082608093910080919100816080939100FA
:10095000809190008160809390008091A1008260DE
:100960008093A1008091A10081608093A10080917B
:10097000A00081608093A00080912101826080931B
:1009800021018091210181608093210180912001CA
:1009900081608093200180917A00846080937A0046
:1009A00080917A00826080937A0080917A008160E1
:1009B00080937A0080917A00806880937A00109208
:1009C000C10030E4832E32E0932E48E3242E42E02F
:1009D000342E80E392E09C838B83E8E2F2E0FA839A
:1009E000E98380E292E09E838D83E8E1F2E0F8877C
:1009F000EF8380E192E09A878987E8E4F2E0FC8760
:100A0000EB87FA8BE98B00E112E0E8E1F2E0F88B8A
:100A1000EF8750E2C52E52E0D52E68E2A62E62E0A6
:100A2000B62E80E392E09E878D8731012401E12C70
:100A3000F12CF20181912F011ADCF30181913F0128
:100A400016DCED85FE858191FE87ED8710DCF501D2
:100A500081915F010CDCF60181916F0108DCEF856B
:100A6000F8898191F88BEF8702DCF80181918F0181
:100A7000FEDBE989FA898191FA8BE98BF8DBFFEFDC
:100A8000EF1AFF0A88E0E816F10499F688E2682E6A
:100A900082E0782E00E312E098E3E92E92E0F92E4E
:100AA00020E4C22E22E0D22EA12CB12C61E0F6016E
:100AB00081916F011DDD60E0F70181917F0118DDFB
:100AC00060E0F80181918F0113DD60E0F301819115
:100AD0003F010EDD61E0ED81FE818191FE83ED83BA
:100AE00007DD61E0EF81F8858191F887EF8300DD14
:100AF00060E0E985FA858191FA87E987F9DC60E0B1
:100B0000EB85FC858191FC87EB87F2DCFFEFAF1A68
:100B1000BF0A88E0A816B10449F6E0917702F09187
:100B2000780282E08083E0917302F0917402108277
:100B3000E0917502F091760210E1108310927F022D
:100B4000E0917B02F0917C0286E08083E091790263
:100B5000F0917A02808180618083E0917902F09146
:100B60007A02808188608083E0917902F0917A0234
:100B7000808180688083E0917902F0917A0280819F
:100B80008F7D808344E050E062E572E087E692E08A
:100B90008DDB109280001093810021E0209363028E
:100BA0008FB780936402F89480E49CE9909362028A
:100BB0008093610290938700809386008091640205
:100BC0008FBF80918100887F809381009091810008
:100BD00080916302982B9093810042E553E05093FB
:100BE00066024093650220936F0090918100892BEB
:100BF0008093810060E0F10181911F0179DC60E068
:100C0000EB81FC818191FC83EB8372DC60E0E98104
:100C1000FA818191FA83E9836BDCF0E42F16F2E02C
:100C20003F0641F760E0F40181914F0161DCF8E497
:100C30008F16F2E09F06B1F760E084E359DC60EDC7
:100C400077E080E090E0F5DC64EF71E080E090E038
:100C5000F0DC61E084E34CDC60ED77E080E090E084
:100C6000E8DC1092050364EF71E080E090E0E1DCE5
:100C700007DCE2CFE7E6F2E01382128288EE93E02F
:100C8000A0E0B0E084839583A683B78384E092E0FC
:100C90009183808385EC90E09587848784EC90E055
:100CA0009787868780EC90E0918B808B81EC90E039
:100CB000938B828B82EC90E0958B848B86EC90E01A
:100CC000978B868B118E128E138E148E0895EE0FD5
:100CD000FF1F881F8BBF0790F691E02D199481E0CC
:0A0CE00090E0F89400C0F894FFCFF4
:100CEA0000000000D9015601A301810195011F02EC
:100CFA000E32160C33173C4400301A0B311B3B439F
:100D0A00012E1C0A2F1D3A42052C1E092D1F39419E
:100D1A00042A20082B213840032822072923373F99
:100D2A00022624062725363E0F34180D35193D456F
:080D3A006100696E697400009C
:00000001FF
